:020000040800F2
:10000000000003207D340008ED310008EF310008C6
:10001000F1310008F3310008F5310008000000005C
:10002000000000000000000000000000B1200008F7
:10003000F73100080000000041210008A521000858
:10004000CD340008CD340008CD340008CD3400088C
:10005000CD340008CD340008CD340008CD3400087C
:10006000CD340008CD340008CD340008CD3400086C
:10007000CD340008CD340008CD340008CD3400085C
:10008000CD340008CD340008CD340008CD3400084C
:10009000CD340008CD340008CD340008CD3400083C
:1000A000CD340008F9310008CD340008CD34000803
:1000B000CD340008CD340008CD340008CD3400081C
:1000C000CD340008CD340008CD340008CD3400080C
:1000D000CD340008CD340008CD340008CD340008FC
:1000E000CD340008CD340008CD340008CD340008EC
:1000F000CD340008CD340008CD340008CD340008DC
:10010000CD340008CD340008CD340008CD340008CB
:10011000CD340008CD340008CD340008CD340008BB
:10012000CD340008CD340008CD340008CD340008AB
:0C013000CD340008CD340008CD340008A8
:1001400010B5054C237833B9044B13B10448AFF311
:1001500000800123237010BD140000200000000067
:100160002835000808B5034B1BB103490348AFF31A
:10017000008008BD0000000018000020283500089D
:10018000094A136843F4807310B50320136000F02C
:10019000D7FA002002F0F0FF044618B902F0E6FF9B
:1001A000204610BD0124FBE700400058034A0449E3
:1001B000136809680B441360704700BF7C0D002072
:1001C00004000020014B1868704700BF7C0D002020
:1001D000014B1868704700BF0800002030B5CC0DF7
:1001E00004F004041430C1F30451235807258D4052
:1001F00023EA050302FA01F11943215030BD80685A
:1002000000F0010070478068C0F380007047000074
:1002100037B500230193044600287BD0456D25B9EE
:1002200002F0A8FCA56584F85050206883689B0004
:1002300072D48368DD0076D58368D90040F181806F
:100240000021FFF7E0FF636D13F0100F636D5ED1C7
:1002500000285CD123F4817343F0020363652068B6
:10026000FFF7CDFF50B94E48FFF7C9FF30B94D4AEF
:100270006068936823F47C1303439360E068636BC6
:1002800094F820200343A0680343607E012A43EAD8
:10029000403343EA024302BF626A02F1FF3243EA9B
:1002A0004243A26A22B1E06A02F47072024313432D
:1002B00020683D4AC5682A401343C360FFF7A3FF87
:1002C00023689A68120746D52269012A05BF186B70
:1002D000E2691A6B02F1FF3206BF20F00F00024301
:1002E00022F00F021A63636D23F0030343F001034E
:1002F0006365084603B030BD019B013B0193019B40
:10030000002BF9D198E71A6922F0010245E043F089
:10031000100363650121ECE7836823F0204323F099
:100320003F03836085E78368204A23F0104323F06E
:100330003F0343F0805383601D4B1B68B3FBF2F314
:10034000DCE7636D43F010036365A36D43F00103C5
:10035000A365012175E70028B6D1D86894F830204C
:10036000257E520020F4804042EA853220F00200CF
:100370000243DA6094F83820012AC4D1256CE26B7C
:1003800018692A43656C42F001022A43A56C20F4E7
:10039000FF602A4320F0040002431A6194E700BF83
:1003A000000004500003045007C0F0FF400D03009C
:1003B00010000020F7B50023019390F85030012B76
:1003C00005460C4600F07481012380F85030006827
:1003D000FFF719FF002840F065814A682868236804
:1003E000910901F00C0100F1300702F01F02CE5913
:1003F0004FF01F0EC3F3846393400EFA02F226EA15
:1004000002021343CB51FFF7FEFE2B689A681207D6
:1004100040F150812868FFF7F2FE00286DD00020DF
:10042000002385F8503003B0F0BD196E196EC2F389
:100430001206C1F38461002E3ED1C2F384628A4267
:1004400002BF1A6E22F000421A665A6E22685E6E71
:10045000C2F31207C6F3846600F10C018FBBC2F32E
:100460008467BE4240F049815A6E22F000425A66CB
:10047000226883688368C2F3120700F10806C3F399
:10048000846357BBC2F384629A4240F03D81336873
:1004900023F000433360C3682368C268C3F31200CB
:1004A000C2F3846220BBC3F38463934202BF0B6830
:1004B00023F000430B60ADE792FAA2F2B2FA82F2A7
:1004C000BDE792FAA2F7B7FA87F7BE42CCD003F1A4
:1004D00068069F6E9B6EC3F3846392FAA2F2B2FA2F
:1004E00082F29A42D3D0C368C2682368C2F384629E
:1004F00093FAA3F3B3FA83F3D7E7E668286823688F
:10050000844AD0F8B01006F0180EC3F3120722FA8E
:100510000EF21A4021EA07010A43C0F8B0207E4AD1
:10052000964248D1DFB99E0E013606F01F02092A15
:100530004FF001014FEA86662BD906F0F84691404C
:1005400041EA0602002F7CD19B0E013303F01F030A
:1005500003EB43011E39090541F0007127E093FACE
:10056000A3F2B2FA82F2013202F01F02092A52D932
:1005700093FAA3F2B2FA82F20132920602F0F8463E
:1005800093FAA3F1B1FA81F1013101F01F020121C7
:10059000D5E706F0F846914041EA0602002F4BD11C
:1005A000990E013101F01F0101EB410109051143D1
:1005B000A268FFF713FE2368584A1A423FF42FAF90
:1005C000574F584A38469368FFF719FE002863D101
:1005D00021685548814203F0E07637D11B023FF590
:1005E0001EAF2B68BB427FF41AAF936823F0E07311
:1005F000334343F4000393604C4B4D4A1B68B3FBF9
:10060000F2F20C2353430193019B002B3FF407AFFD
:10061000019B013BF7E793FAA3F6B6FA86F601369B
:10062000B60606F0F84693FAA3F1B1FA81F101316A
:1006300001F01F020121AEE793FAA3F1B1FA81F1B3
:10064000AFE793FAA3F3B3FA83F37EE73948814225
:100650000FD113F080707FF4E2AE2B68BB427FF4C1
:10066000DEAE936823F0E073334343F0807393600E
:10067000D6E6314881427FF4D2AE13F480007FF495
:10068000CEAE2B68BB427FF4CAAE936823F0E07312
:10069000334343F48003EAE76B6D43F020036B655B
:1006A0000120BDE66A6D42F020026A651846B7E691
:1006B0000220B8E600287FF4ADAE1846A268216893
:1006C000FFF78CFD26692B682268D968042E03F198
:1006D00060003FF4AAAEC1F3C1035900636950F84A
:1006E000267002F0F84242F000428B401343134A56
:1006F0003A40134340F826308CE603F168069F6EBB
:100700009B6EC3F38463BDE6C368C2682368C2F30B
:100710008462C8E6FFFF070000007F4000000880F9
:100720000000045000030450000052C710000020D5
:10073000400D0300000084CB0100008000F0FF03A7
:10074000074AD36823F4E0631B041B0C43F0BF6328
:10075000000243F4003300F4E0600343D3607047C9
:1007600000ED00E0174B30B5DC68C4F30224C4F19F
:100770000703251D042B28BF0423062D4FF0010578
:1007800005FA03F303F1FF338CBF033C0024194047
:10079000A14005FA04F4013C2240002842EA01028B
:1007A0004FEA0212AFBF00F1604000F00F00064BAD
:1007B000D2B2A5BF00F56140D2B21A5480F800232E
:1007C00030BD00BF00ED00E014ED00E04209012360
:1007D00000F01F0003FA00F0014B43F822007047BD
:1007E00000E100E02DE9F04F554AD1F800800023E8
:1007F0004FF00F0938FA03F401D1BDE8F08F01245E
:1008000004FA03FA18EA0A0500F08F804C6824F015
:10081000100BBBF1020F11D1DF0800EB870703F0CB
:10082000070E3E6A4FEA8E0E09FA0EFC26EA0C0C01
:100830000E6906FA0EF646EA0C063E624FEA430CD3
:100840000327066807FA0CF7FF4304F0030E3E4047
:100850000EFA0CFE0BF1FF3B4EEA0606BBF1010F50
:10086000066011D8866806EA070BCE6806FA0CFE09
:100870004EEA0B068660466826EA0A0AC4F30016AA
:100880009E4046EA0A064660C66837408E6806FA09
:100890000CF63743E600C76047D523F0030707F19E
:1008A000804707F5803703F0030EBE684FEA8E0ECF
:1008B00009FA0EFCB0F1904F26EA0C0C37D0214E0D
:1008C000B04236D006F58066B04234D006F5806678
:1008D000B04232D006F58066B04214BF0726042627
:1008E00006FA0EF646EA0C06BE60D2F88060EF43C8
:1008F00014F4803F0CBF3E402E43C2F88060D2F813
:10090000846014F4003F0CBF3E402E43C2F8846064
:10091000166814F4801F0CBF3E402E4316605668C4
:10092000A40254BF3E402E435660013362E70026C6
:10093000D6E70126D4E70226D2E70326D0E700BF98
:1009400000080058000400480AB1816170478162C4
:10095000704770B5044686B0002857D090F8293209
:1009600003F0FF021BB980F8282202F057FD032391
:1009700084F82932206801F0B9FA00226068012663
:100980001546D3B2984202F1010220D80022114646
:10099000D3B2984202F1010228D804F110060FCE1A
:1009A0006D460FC533682B60231D0ECB206801F008
:1009B000A7FA0025012384F8245084F82932E3693A
:1009C000012B02D1204600F024F828461FE004EB5A
:1009D000431181F82830CB8602335B0181F829600E
:1009E00081F82B508D63CD63E550CAE704EB4315C6
:1009F00085F828310A335B0185F8291185F82B1118
:100A0000C5F83811C5F83C11E150C1E7012006B026
:100A100070BD026803460121C0F86812002083F807
:100A20006002B2F854309BB20B43A2F85430B2F8D3
:100A300054309BB243F00203A2F8543070470000D8
:100A4000024A136843F4807313607047000400582F
:100A5000024B186800F4C060704700BF00040058E3
:100A60004FF0B0431868C0F3404070474FF0B043B8
:100A70001868C0F3802070474FF0B043D3F894005B
:100A8000C0F3400070474FF0B0431868C0F3400017
:100A900070474FF0B042136823F0F0031843106022
:100AA00070474FF0B043186800F0F000B02828BF3E
:100AB000B02070474FF0B042536823F47F4343EABD
:100AC0000020506070474FF0B0431868C0F340609A
:100AD00070470000B028324B324A98BF0009F0B589
:100AE0008CBFDD6A53F820502F4C4FF0B0438DB0CF
:100AF000D3F8083103F00F0304AE52F82330B5FBEE
:100B0000F3F52A4BB5FBF3F5FFF7A2FF074694E890
:100B10000F0086E80F0004F1100207CA01AB1C3475
:100B200083E8070094E80F00B7F5007F0CAC04E9F8
:100B30000F001FD1002356F82320954215D80CAA88
:100B400002EB830353F8104C194D2B6823F0070375
:100B500023432B60FFF736FB06462B6803F00703A1
:100B60009C4216D100200DB0F0BD0133042BE2D120
:100B70000024E9E7019B9D4207D9029B9D4206D9CB
:100B8000039B9D42F4D80223D9E70023D7E7012332
:100B9000D5E7FFF717FB801B0228DED90320E2E729
:100BA0003C360008DC3500084035000840420F00A4
:100BB00000400058F8B5044608B90120F8BD0368A4
:100BC0009D0629D54FF0B0429368D26813F00C030C
:100BD00005D00C2B45D102F00303012B41D1FFF7C7
:100BE00052FF10B1E369002BE7D0626AFFF759FFAB
:100BF0008242606A2AD9FFF76DFF0028DDD1606A62
:100C0000FFF747FF206AFFF755FF02F02FFB002098
:100C100002F0B2FA0028D0D12368D8074ED4236856
:100C2000990700F19880236813F0180F40F0D980DD
:100C300023685A0700F1658123685A0600F1B781DD
:100C4000E16A002940F0DF810020F8BDFFF721FFB5
:100C5000206AFFF72FFF606AFFF73CFF0028D4D01F
:100C6000ABE7E2694FF0B043BAB11A6842F0010253
:100C70001A60FFF7A7FA0546FFF705FF30B1606A73
:100C8000FFF707FF206AFFF715FFC5E7FFF79AFA9E
:100C9000401B0228F0D90320F8BD1A6822F0010297
:100CA0001A60FFF78FFA0546FFF7EDFE0028B3D074
:100CB000FFF788FA401B0228F6D9ECE74FF0B04264
:100CC0009368D26803F00C03082B05D00C2B0BD1D2
:100CD00002F00303032B07D1FFF7C2FE00289ED0CA
:100CE0006368002B9BD168E76268B2F5803F4FF0E4
:100CF000B04310D11A6842F480321A60FFF762FAEA
:100D00000546FFF7ADFE002889D1FFF75BFA401BCF
:100D10006428F6D9BFE7B2F5A02F04D11A6842F4CF
:100D200080221A60E6E7196821F480311960196899
:100D300021F480211960002AE0D1FFF743FA05462B
:100D4000FFF78EFE00283FF46AAFFFF73BFA401B27
:100D50006428F5D99FE74FF0B0429368D26803F05A
:100D60000C03042B05D00C2B14D102F00303022B2F
:100D700010D1FFF77BFE18B1E368002B3FF41DAFE5
:100D80004FF0B0422169536823F0FE4343EA016308
:100D9000536048E7E2684FF0B04382B11A6842F40A
:100DA00080721A60FFF70EFA0546FFF75FFE002813
:100DB000E6D1FFF707FA401B0228F6D96BE71A685D
:100DC00022F480721A60FFF7FDF90546FFF74EFE28
:100DD00000283FF428AFFFF7F5F9401B0228F5D9AA
:100DE00059E762694FF0B045002A6BD0DB0643D566
:100DF000FFF742FE10B34FF0B045D5F8943043F002
:100E00000403C5F89430FFF7DDF90646D5F89430B1
:100E10001F0740F17881D5F89430A26923F47063FC
:100E200043EA0223C5F89430D5F8943023F0010347
:100E3000C5F89430FFF7C6F9054618E0D5F89430A8
:100E400043F00103C5F89430FFF7BCF90546FFF7FE
:100E500013FE0028CFD1FFF7B5F9401B0228F6D9C1
:100E600019E7FFF7AFF9401B02283FF614AFFFF771
:100E700003FE0028F5D1DBE6D5F8943043F00103FA
:100E8000C5F89430FFF79EF90646FFF7F5FD98B1D7
:100E90004FF0B0431D46D3F8942022F00402C3F86B
:100EA0009420D5F8943018077FF5C2AEFFF78AF981
:100EB000801B0328F5D9EEE6FFF784F9801B022892
:100EC000E3D9E8E6D5F8943023F00403C5F894306C
:100ED000FFF778F90646D5F89430190740F11A81E2
:100EE000FFF770F9801B0328F5D9D4E6FFF76AF9FC
:100EF000401B02283FF6CFAEFFF7BEFD0028F5D11C
:100F000096E6894D2B68DB051CD5A368012B4FF0B5
:100F1000B04525D1D5F8903043F00103C5F89030A5
:100F2000FFF750F94FF0B047064641F28835D7F841
:100F3000903098073FF580AEFFF744F9801BA84238
:100F4000F5D9A8E6FFF77CFDFFF73CF906462B68CC
:100F5000DF05DAD4FFF736F9801B0228F7D99AE6C5
:100F6000052B06D1D5F8903043F00403C5F8903036
:100F7000D0E7D5F8902022F00102C5F89020D5F8EE
:100F8000902022F00402C5F89020002BC8D1FFF772
:100F900019F941F288360746D5F8903099077FF560
:100FA0004BAEFFF70FF9C01BB042F5D973E6A36A49
:100FB0004FF0B0459BB1D5F8983043F00103C5F828
:100FC0009830FFF7FFF80646D5F898309A073FF5B6
:100FD00037AEFFF7F7F8801B0228F5D95BE6D5F8A6
:100FE000983023F00103C5F89830FFF7EBF8064678
:100FF000D5F898309B077FF523AEFFF7E3F8801B09
:101000000228F5D947E64FF0B0439A6802F00C0287
:101010000C2A52D01A68022922F080721A6034D148
:10102000FFF7D0F80546FFF74EFD40BB4FF0B0424A
:10103000616B236BD0680B433C4901400B43E16B70
:101040000B43216C0B43616C0B43A16B43EA0123FF
:10105000D360136843F080731360D36843F0805308
:10106000D360FFF7AFF80446FFF72DFD00287FF4AB
:10107000EBADFFF7A7F8001B0228F5D90BE6FFF749
:10108000A1F8401B0228CED905E6DA6822F0030257
:10109000DA60DA6822F0885222F48032DA60FFF7F0
:1010A00091F80446FFF70FFD00283FF4CDADFFF7A0
:1010B00089F8001B0228F5D9EDE5D868236B00F00C
:1010C00003029A427FF479AD626B00F070039342A1
:1010D0007FF473ADA26BC0F3062393427FF46DAD32
:1010E000E26B00F4781393427FF467AD226C00F05A
:1010F000606393427FF461AD636C00F06040C01A9E
:1011000018BF0120F8BDFFF75DF8801B03287FF6AC
:101110007DAEC0E5D5F8943023F00103C5F89430D6
:10112000FFF750F80546E7E6000400588C80C1112F
:101130002DE9F0410D46044610B90120BDE8F081CB
:10114000794E336803F007038B4272D32368990703
:101150000ED54FF0B046A268B36823F0F0031343F6
:10116000B360FFF72FF80746B368DB0340F1B880A0
:1011700023689A0611D54FF0B0466269D6F8083157
:1011800023F0F0031343C6F80831FFF71BF80746B6
:10119000D6F80831990340F1AA802368580612D581
:1011A0004FF0B046A269D6F8083123F00F0343EAA6
:1011B0001213C6F80831FFF705F80746D6F80831CC
:1011C000DB0340F19B8023685A070ED54FF0B046F1
:1011D000E268B36823F4E0631343B360FEF7F2FF01
:1011E0000746B368990340F19080236818070FD52C
:1011F0004FF0B0462269B36823F4605343EAC20358
:10120000B360FEF7DFFF0746B3685B0340F18480FD
:101210002368DA0723D4444C236803F007039D4274
:101220004BD302F023F8FEF7D3FFBDE8F04101F005
:10123000A3BF336823F007030B433360FEF7C2FFFD
:101240000746336803F007039D423FF47FAFFEF784
:10125000B9FFC01B0228F4D90320BDE8F081636800
:10126000022B1ED1FFF7FCFB00283FF466AF4FF0C6
:10127000B0466268B36823F003031343B360FEF71C
:10128000A1FF41F288380746B368626803F00C0397
:10129000B3EB820FBFD0FEF795FFC01B4045F3D9DB
:1012A000DAE7032B02D1FFF70EFCDDE713B9FFF7F6
:1012B000EAFBD9E7FFF7DAFBD6E7236823F0070359
:1012C0002B432360FEF77EFF0646236803F00703E7
:1012D0009D42A6D0FEF776FF801B0228F5D9BBE71A
:1012E000FEF770FFC01B02287FF63EAFB4E7FEF7A3
:1012F00069FFC01B02287FF64BAFADE7FEF762FF28
:10130000C01B02287FF65AAFA6E7FEF75BFFC01BA3
:1013100002287FF666AF9FE7FEF754FFC01B022846
:101320007FF672AF98E700BF004000584FF0B04220
:1013300008B5936813F00C0307D1FFF7B2FB1F4BFE
:10134000C0F3031053F8200008BD042B33D0082B42
:1013500007D113681A4813F4801F1A4B08BF1846A8
:1013600008BDD36803F00303022B22D0032B18D14E
:101370001368144813F4801F114B08BF03464FF045
:10138000B042D068D168D268C0F306205843C1F398
:1013900002130133B0FBF3F0530F0133B0FBF3F052
:1013A00008BDFFF77EFB054BC0F3031053F8203058
:1013B000E5E7034BE3E7024808BD00BF3C36000801
:1013C0000024F4000048E80108B5FFF7AFFF4FF034
:1013D000B043044A9B68C3F3031352F82330B0FBB5
:1013E000F3F008BDDC35000808B5FFF7EDFF4FF05E
:1013F000B043054A9B68C3F3C22352F8233003F07D
:101400001F03D84008BD00BF1C3600086F230360CF
:101410004FF0B0439A6802F00C0242609A6802F002
:10142000F00282609A6802F4E062C2609A6802F494
:1014300060520261D3F8082102F0F0024261D3F851
:1014400008311B01DBB28361024B1B6803F0070309
:101450000B607047004000584FF0B043D3F8900045
:10146000C0F3400070474FF0B0410209D1F8883016
:1014700002F47F22000123EA020300F47F201843D4
:10148000C1F8880070474FF0B042136843F08063A2
:10149000136070474FF0B042136823F0806313600D
:1014A00070474FF0B0431868C0F3C0607047F8B59C
:1014B000056815F04005044643D0036BB3F5800F73
:1014C00015D002D8D3B101253BE0B3F5000F02D00F
:1014D000B3F5400FF7D14FF0B042216BD2F888300E
:1014E00023F440030B43C2F88830002529E04FF075
:1014F000B042D36843F48033D360ECE7FFF7CAFF10
:10150000FEF760FE0546FFF7CCFFA0B94FF0B042F2
:101510006168136923F4FE4343EA012313611369ED
:10152000A16823F478130B431361FFF7ACFFFEF7B8
:1015300049FE0546BAE0FEF745FE401B0228E2D907
:10154000032523681A0515D54FF0B046236CD6F84D
:10155000907007F44077BB420CD0FFF771FAD6F8D1
:101560009030002F40F0AD80226C23F44073134381
:10157000C6F890302368DF0709D54FF0B041A06965
:10158000D1F8882022F003020243C1F888209E0788
:1015900009D54FF0B041E069D1F8882022F44062CB
:1015A0000243C1F88820D8060CD5A66A4FF0B04097
:1015B000310CD0F88820090422EA010242EA0642EE
:1015C000C0F8882099060CD5E66A4FF0B040310C7F
:1015D000D0F88820090422EA010242EA0642C0F853
:1015E00088205A0702D5206AFFF73DFF23681B07B2
:1015F00002D5606AFFF737FF2368DF0510D54FF08B
:10160000B042616BD2F8883023F040630B43B1F1F4
:10161000006FC2F888307DD1D36843F08073D36007
:101620002268960509D54FF0B041A06BD1F88830FB
:1016300023F040430343C1F88830500511D54FF0E3
:10164000B042E16BD2F8883023F040530B43B1F144
:10165000005FC2F8883040F09480D36843F4803350
:10166000D3602268D10409D54FF0B041606CD1F845
:10167000943023F440430343C1F8943093040DD5D0
:101680004FF0B042E16C536A23F030030B435362D6
:10169000536AA16C23F003030B4353622846F8BD41
:1016A000FEF790FD401B02283FF64AAFFFF7F9FE18
:1016B0000128F5D14FF0B042616913690B43136102
:1016C00009E7D6F8902042F48032C6F89020D6F888
:1016D000902022F48032C6F89020226C23F44073CC
:1016E0001343C6F89030D6F89030DB077FF542AF51
:1016F000FEF768FD41F28836074604E0FEF762FD1A
:10170000C01BB04204D8FFF7A7FE0128F6D131E78D
:1017100003252FE7B1F1806F82D1FFF7BBFEFEF703
:1017200051FD0646FFF7BDFEA0B94FF0B04261681B
:10173000136923F4FE4343EA012313611369E1684B
:1017400023F060630B431361FFF79DFEFEF73AFD44
:1017500006460BE0FEF736FD801B0228E2D9032582
:101760005EE7FEF72FFD801B0228F8D8FFF799FEF1
:101770000128F6D14FF0B042616913690B43136140
:101780004EE7B1F1805F7FF46CAFFFF783FEFEF7A9
:1017900019FD0646FFF785FEA0B94FF0B04261681B
:1017A000136923F4FE4343EA01231361136921699A
:1017B00023F060430B431361FFF765FEFEF702FD64
:1017C00006460BE0FEF7FEFC801B0228E2D903254B
:1017D00047E7FEF7F7FC801B0228F8D8FFF761FE09
:1017E0000128F6D14FF0B042616913690B431361D0
:1017F00037E74FF0B042136843F0040313607047BB
:1018000038B5044600285BD0836C1BB980F844309F
:1018100001F0C8FA0223A364236821691A6822F040
:1018200001021A60626822F070621A615A6922F439
:1018300000425A615A6922F000425A61226B5A6191
:101840009A6822F400429A60E268002A32D00129A4
:101850002DD142F400429A605A68A169656AA06A73
:1018600042F0007242F400425A6062690A43E16940
:1018700042EA0122DA60226AE16A2A430243A56849
:101880000A432A43B0F5000F1A6006D131F4001262
:1018900002BF1A6842F480321A601A6842F00102EC
:1018A0001A6000200123E0642364A36438BD42F47D
:1018B00004429A60022904BF4FF400625A60CBE7E9
:1018C000012038BD03681A6842F480021A604FF4A0
:1018D0000052DA611A6842F080021A6000207047F4
:1018E00003685A6822F0E0025A604268B2F5827FCB
:1018F0000AD18268B2F5004F02D0B2F5806F03D1F1
:101900001A6822F040021A60826AB2F5005F07D1BD
:101910001A6822F400521A601A6842F400521A60DF
:10192000012380F85D30002380F85C30032070478D
:1019300070B504460D4616462368986810F080007E
:1019400000D170BD6A1CF8D0FEF73CFC801B8542BC
:10195000F2D82046BDE87040FFF7C2BFF8B5054693
:101960000C4616461F4629688868204000D1F8BDFD
:10197000B4F5C06F08BF0B7B731CF5D0FEF722FCDB
:10198000C01B8642EFD82846BDE8F840FFF7A8BF45
:1019900070B513460D4616460A464FF4C05104462C
:1019A000FFF7DCFF28B1236E43F0200323660320FA
:1019B0000FE0324629462046FFF7BAFF0028F2D151
:1019C00033462A464FF4C0612046FFF7C7FF002880
:1019D000E9D170BD70B5044600284AD00023836267
:1019E00090F85D3003F0FF021BB980F85C2001F035
:1019F00077FB0223216884F85D300B68E26823F0EE
:101A00004003B2F5E06F0B604FF000032ED918468B
:101A1000B2F5706F18BFA362236B2BB9B2F5E06FFC
:101A20008CBF022301232363A6686368A56933433F
:101A30002669334366693343E6693343266A334391
:101A4000A66A334305F4007633430B60636A1A4396
:101A5000636B2D0C1A4305F004052A43024301234E
:101A600000204A60206684F85D3070BD4FF48050DD
:101A7000D0E7012070BD2DE9F3411E4690F85C309F
:101A8000012B04460D46904600F0B180012380F8FA
:101A90005C30FEF797FB074694F85D00C0B2012862
:101AA00040F0A380002D5FD0B8F1000F5CD003237D
:101AB00084F85D300020A36820662064A4F83E808E
:101AC000A4F84400A4F846002065E0642068A563FB
:101AD000B3F5004F08BF0368A4F83C8004BF43F48B
:101AE0008043036003685B065EBF036843F0400306
:101AF0000360E368B3F5E06F63683ED913B1B8F1F2
:101B0000010F07D135F8023BC360A563E38F013BAA
:101B10009BB2E387E38F9BB2A3B93A463146204696
:101B2000FFF736FF00285DD1A36833B9019323681E
:101B3000DA6801929B680193019B206E003018BF08
:101B4000012011E022689368980705D5A36B33F84C
:101B5000021BD160A363D9E7FEF734FBC01BB04280
:101B6000D8D3711CD6D00320012384F85D30002324
:101B700084F85C3002B0BDE8F08113B1B8F1010F18
:101B800013D1E38F9BB2012B06D935F8023BC3601A
:101B9000A563E38F023B06E02B780373A36B01334D
:101BA000A363E38F013B9BB2E387E38F9BB2002BE0
:101BB000B3D023689A6892070CD5E28FA06B92B2DB
:101BC000012A04D930F8022BDA60A063E1E7027839
:101BD0001A73E3E7FEF7F6FAC01B8642E5D8731CDA
:101BE000E3D0C0E7202323669EE70220BCE7022063
:101BF000C0E770470368DA6842F00102DA6099686A
:101C0000064A0A40062A06D0B2F5803F1EBF1A686F
:101C100042F001021A600020704700BF0700010077
:101C2000704770477047704703681A69910710B58D
:101C300004460FD5DA6892070CD56FF002021A61DC
:101C40009B6901229907027700F08580FFF7E9FF81
:101C50000023237723681A69520710D5DA685007E2
:101C60000DD56FF004021A619B69022213F4407FC4
:101C70002277204675D0FFF7D4FF0023237723680F
:101C80001A6911070FD5DA6812070CD56FF0080230
:101C90001A61DB6904229B072277204667D0FFF791
:101CA000C0FF0023237723681A69D00610D5DA68AD
:101CB000D1060DD56FF010021A61DB69082213F40A
:101CC000407F2277204658D0FFF7ABFF00232377D1
:101CD00023681A69D20708D5DA68D00705D56FF0EE
:101CE00001021A61204601F0C7F923681A6911063A
:101CF00008D5DA68120605D56FF080021A61204611
:101D000000F097F823681A69D00508D5DA6811063B
:101D100005D56FF480721A61204600F08BF82368B5
:101D20001A69520608D5DA68500605D56FF04002E8
:101D30001A612046FFF777FF23681A69910622D5BA
:101D4000DA6892061FD56FF0200220461A61BDE8BE
:101D5000104000F06DB8FFF763FF2046FFF762FF09
:101D600076E7FFF75DFF2046FFF75CFF85E7FFF7AB
:101D700057FF2046FFF756FF93E7FFF751FF204636
:101D8000FFF750FFA2E710BD1A4A0368904210B552
:101D900002D0B0F1804F09D14C6823F0700390421B
:101DA00043EA040309D0B0F1804F06D0124A9042B2
:101DB00003D002F58062904203D1CA6823F44073D5
:101DC00013434A6923F08003134303608B68C362A3
:101DD0000B688362074B984207D003F5C0539842C3
:101DE00003D003F58063984201D10B69036301239B
:101DF000436110BD002C01400044014010B5044671
:101E0000A0B190F83D3003F0FF021BB980F83C20F0
:101E1000FFF7EFFE022384F83D302068211DFFF715
:101E2000B3FF012384F83D30002010BD012010BD18
:101E3000704770477047002330B51A460F240125BC
:101E4000990004FA01F1014218BF05FA03F103F108
:101E5000010318BF0A43072BF2D1104630BD38B535
:101E60000446002840D090F83C3003F0FF021BB934
:101E700080F83D2001F07AFA2568A168206B0223E2
:101E800084F83C3001232B6063682A680B43616946
:101E90000B43A1690B43E1690B43616A0B43A16AE0
:101EA0000B4313432269A16B43EA42432B60237B1C
:101EB000012B02BF2B6843F480332B60636B034319
:101EC00043EA0102D2432A61AB622962FFF7B3FF02
:101ED00028636B6823F003036B600323AB6001236B
:101EE00084F83C30002038BD012038BDB0F84030C7
:101EF00023F47E535B045B0CA0F840300020704755
:101F000084B010B503AC84E80E0000220123A0F8D1
:101F10004030A0F84020A0F84420A0F85020B0F8AD
:101F20004030BDE810409BB243F43F4343F0800390
:101F3000A0F8403004B01046704708B500F030FCFF
:101F4000002008BD30B5B0F90840028A0B4690E881
:101F5000220085B0842C14BF0334002403A8019010
:101F60000094284600F04CFB01280CBF0398002089
:101F700005B030BD08B5002808BF012000F05EFDA7
:101F8000002008BD00F1080343604FF0FF32C3603A
:101F90000361002382600360704700230361704780
:101FA00043684B609A688A609A68516099600368D8
:101FB00008610133036070470A68531C30B50AD1C9
:101FC00003695A684A6091608B60596003680861D0
:101FD0000133036030BD00F108035C682568AA4244
:101FE000EFD32346F9E74168826803698A60826813
:101FF00051605968884208BF5A60002202611A681D
:10200000013A1A601868704782B0002301930D4BA3
:102010001B68013308D04FF0500383F31188BFF3DE
:102020006F8FBFF34F8FFEE74FF0500383F311889C
:10203000BFF36F8FBFF34F8F019B002BFCD002B01B
:10204000704700BF0C00002008480068006880F35B
:1020500008884FF0000080F3148862B661B6BFF3C1
:102060004F8FBFF36F8F00DF00BF000008ED00E06F
:10207000DFF80C00016841F4700101607047000056
:1020800088ED00E04FF0807340F8043C074B40F8C7
:102090000C3C21F001016FF0020340F8081C40F8ED
:1020A000202C40F8243C4438704700BF0920000829
:1020B000074B19680868B0E8F04F80F30988BFF350
:1020C0006F8F4FF0000080F311887047AFF30080EE
:1020D000500C00204FF0500383F31188BFF36F8F33
:1020E000BFF34F8F0A4A13680133012B13600DD1E0
:1020F000084B1B6813F0FF0F08D04FF0500383F319
:102100001188BFF36F8FBFF34F8FFEE7704700BF9B
:102110000C00002004ED00E0084A136843B94FF0BA
:10212000500383F31188BFF36F8FBFF34F8FFEE728
:10213000013B13600BB983F3118870470C0000203A
:10214000EFF30980BFF36F8F154B1A681EF0100F65
:1021500008BF20ED108A20E9F04F10602DE909003A
:102160004FF0500080F31188BFF34F8FBFF36F8F94
:1021700000F088FC4FF0000080F3118809BC19685A
:102180000868B0E8F04F1EF0100F08BFB0EC108ADE
:1021900080F30988BFF36F8F704700BFAFF30080F3
:1021A000500C002008B54FF0500383F31188BFF3A3
:1021B0006F8FBFF34F8F00F037FB18B1034B4FF019
:1021C00080521A60002383F3118808BD04ED00E0FB
:1021D000084A0949002313600B60084B4FF47A71D9
:1021E0001B68B3FBF1F30649013B0B600723136047
:1021F000704700BF10E000E018E000E01000002091
:1022000014E000E0394B3A4A13B51968914208D1FD
:102210004FF0500383F31188BFF36F8FBFF34F8FDD
:10222000FEE71A68334B9A4208D14FF0500383F30C
:102230001188BFF36F8FBFF34F8FFEE72E4B1A78D5
:10224000D2B20192FF221A701B782C4ADBB28DF8B1
:1022500003309DF8033003F050031370284B07221E
:102260001A6000219DF80300000602F1FF340DD42E
:1022700001B11A601A68032A11D04FF0500383F39A
:102280001188BFF36F8FBFF34F8FFEE79DF80320D8
:102290005200D2B28DF8032001212246E2E7120259
:1022A00002F4E0621A60019B134ADBB21370154B13
:1022B0001A6842F470021A601A6842F070421A609A
:1022C000FFF786FF104B00241C60FFF7D1FE0F4A7A
:1022D000136843F040431360FFF7B6FE00F0D2FBF3
:1022E000FFF792FE204602B010BD00BF00ED00E0F7
:1022F00071C20F4170C20F4100E400E030000020C5
:102300003400002020ED00E00C00002034EF00E05D
:1023100010B50F4B1A68824218D35C6819198842AD
:1023200001BF4168184609195960446801198A4279
:1023300007D1084909688A421FBF51681268091904
:1023400041609842026018BF186010BD1346E1E773
:10235000480C0020380000202DE9F041044600F030
:102360005BFA3E493E4D0B680BBB3E4A56071FBF0A
:10237000D01D20F0070002F540631B1A14BF02466F
:102380004FF440631344083B23F00703364E0B60C1
:1023900000207060326058601860981A1360334BE8
:1023A00050601860324B18604FF000432B602F686C
:1023B000274216D1002C41D004F1080358071CBF56
:1023C00023F00703083363B1294A1668B3429046E5
:1023D00007D8254A15686868834204D809688D4281
:1023E00007D100242AE02C68002CF7D02A46254685
:1023F000F1E7296814681160C21A102A0FD9E81889
:10240000410708D04FF0500383F31188BFF36F8F5B
:10241000BFF34F8FFEE742606B60FFF779FF134910
:102420006B680868F61A1F4386424FF00003C8F82D
:10243000006038BF0E6008346F602B6000F086FAD1
:10244000630708D04FF0500383F31188BFF36F8FF9
:10245000BFF34F8FFEE72046BDE8F0813800002033
:102460003C0C00203C000020480C0020440C0020C4
:10247000400C002010B5044670B3184A50F8043CD4
:102480001268134208D14FF0500383F31188BFF351
:102490006F8FBFF34F8FFEE750F8081C41B14FF02C
:1024A000500383F31188BFF36F8FBFF34F8FFEE7A5
:1024B00023EA020340F8043C00F0AEF9084A54F85D
:1024C000043C1168A4F108000B441360FFF720FFDF
:1024D000BDE8104000F03ABA10BD00BF3C0C00202F
:1024E000400C0020064A13681968064B19B94FF0D2
:1024F000FF321A6070471268D268D2685268F8E7F3
:10250000540C00202C0D0020F8B51B4B1B4E1D68F1
:102510000446306804300F46FFF765FD334640B986
:102520003168174EC96A32680120884022EA0002E9
:102530003260621C07D137B1196812480431BDE816
:10254000F840FFF72DBD2C441A68A542546007D906
:102550000D4A10681968BDE8F8400431FFF72CBD3A
:102560000A4A106819680431FFF726FD084B1A68FB
:10257000944238BF1C60F8BD740D0020500C002040
:10258000FC0C00204C0D0020580C0020540C0020A6
:102590002C0D002080B5DFF86480144F144C154ECC
:1025A000236863B9144B1B68012BF8D94FF0805393
:1025B000C8F80030BFF34F8FBFF36F8FEEE7FFF720
:1025C00089FDFB68DD68281DFFF70DFD3368013BC1
:1025D00033602368013B2360FFF79EFD286BFFF704
:1025E00049FF2846FFF746FFDAE700BF600D0020ED
:1025F000EC0C0020E80C00205C0C002004ED00E056
:102600002DE9F84F4FEA820A804650460F46994618
:102610000B9EFFF7A1FE0546002800F0968054208F
:10262000FFF79AFE0446002800F08C80AAF1040A05
:10263000056355447B1E25F0070A00F134020F376D
:10264000597802F8011B13F8011F09B1BB42F7D1F9
:102650000A9D062D28BF06254FF0000B271DE562B9
:102660006564384684F843B0C4F848B0FFF795FC79
:10267000C5F1070504F11800FFF78FFCC4F84CB052
:102680002461A561646284F850B04A4641465046D0
:10269000FFF7F8FC206006B13460FFF71BFD324BFA
:1026A000324E1A68DFF8F08001321A603568002D6A
:1026B0004ED134601B68012B1DD108EB0500143589
:1026C000FFF760FC8C2DF8D1DFF8D090284D4846FC
:1026D000FFF758FC2846FFF755FC2648FFF752FC49
:1026E0002548FFF74FFC2548FFF74CFC244BC3F867
:1026F0000090244B1D60244A244913680868013364
:102700001360E26A012505FA02F3034314200B600B
:1027100000FB02803946FFF743FCFFF7FDFC1C4B32
:102720001B6863B13368DA6AE36A9A4207D2194BCD
:102730004FF080521A60BFF34F8FBFF36F8F284660
:10274000BDE8F88F2846FFF795FE4FF0FF35F6E716
:102750000F4B1B68002BCED13368DA6AE36A9A42CA
:1027600098BF3460C7E700BFE80C0020500C002081
:10277000140D0020340D0020600D00204C0D0020B1
:10278000540C0020580C0020F80C0020FC0C0020F9
:10279000480D002004ED00E05C0C0020000D00203E
:1027A00013B5174B0193002400942346802215494A
:1027B0001548FFF725FF012814D14FF0500383F38C
:1027C0001188BFF36F8FBFF34F8F104B4FF0FF3265
:1027D0001A600F4B18600F4B1C6002B0BDE8104030
:1027E000FFF710BD013008D14FF0500383F311887B
:1027F000BFF36F8FBFF34F8FFEE702B010BD00BF76
:10280000280D0020A8350008952500082C0D002073
:10281000480D0020740D0020024A13680133136034
:10282000704700BFF40C00202DE9F84F3C4B1B68AB
:10283000002B53D13B4B1C6801341C60BCB93A4B94
:102840001A68126842B14FF0500383F31188BFF346
:102850006F8FBFF34F8FFEE7344A19681068186016
:102860001160334A136801331360FFF73BFE314DAB
:10287000314F2B689C424FF0000B3ED3DFF8A8800D
:10288000DFF8C490D8F80020126872BB4FF0FF3216
:102890002A6032E006F1040A5046FFF7A4FBB16A51
:1028A00019B106F11800FFF79EFBF06AD9F8003065
:1028B000012202FA00F11943204BC9F800104FF031
:1028C000140E51460EFB0030FFF76AFB3868F16AC0
:1028D000C26A914228BF4FF0010BD3E7184A136830
:1028E000013313604FF0000B11E0D8F80020D268DC
:1028F000D66871688C42CDD229603A680F4BD16A94
:1029000014224A439A58022A28BF4FF0010B0D4A5D
:102910001268002A18BF4FF0010B5846BDE8F88F27
:10292000F40C0020740D0020540C0020580C0020E2
:10293000300D00202C0D0020500C00205C0C0020DD
:10294000F00C0020780D0020FC0C00202DE9F8434D
:10295000314C236843B94FF0500383F31188BFF320
:102960006F8FBFF34F8FFEE7FFF7B4FB2368013B88
:10297000236024682CB10024FFF7CEFB2046BDE87D
:10298000F883264B1B68002BF5D0DFF8A890244F66
:10299000DFF8A480D9F80030E3B90CB1FFF7A2FD4D
:1029A000204D2C6844B1204E0127FFF73DFF00B1B8
:1029B0003760013CF9D12C601B4B1B68002BDAD02F
:1029C0001A4B4FF080521A60BFF34F8FBFF36F8FD7
:1029D0000124D1E7D9F80C30DC68261D04F1180079
:1029E000FFF701FB3046FFF7FEFAE26A396801257E
:1029F00005FA02F314200B4300FB028031463B60D2
:102A0000FFF7CEFA0A4BE26A1B68DB6A9A4224BFE0
:102A1000054B1D60BEE700BFF40C0020E80C002051
:102A2000FC0C0020F00C0020780D002004ED00E0EC
:102A3000500C0020340D00205C0C002008B540B97B
:102A40000E4B4FF080521A60BFF34F8FBFF36F8F62
:102A500008BD0B4B196841B14FF0500383F3118847
:102A6000BFF36F8FBFF34F8FFEE7FFF7D5FEFFF782
:102A70004BFDFFF76BFF0028E2D008BD04ED00E03E
:102A8000F40C0020174B1A68174B10B512B1012235
:102A90001A6010BD1A60154B1B68B3FA83F3DBB2E2
:102AA000C3F11F03142212495A4388188C5844B9A1
:102AB0004FF0500383F31188BFF36F8FBFF34F8F35
:102AC000FEE744680832646844600A44944204BFE4
:102AD00062684260142202FB03135B68DA68054BEC
:102AE000D6E700BFF40C0020780D0020FC0C00207D
:102AF0005C0C0020500C00207FB518220021684695
:102B000000F00AFD1848194B0360042200234261BB
:102B1000012243608360C360036103764376C26130
:102B200080F820308362C36280F83030436380F8DD
:102B30003830FDF76DFB08B100F0A8FA0C4A0A48DE
:102B400006238DE80C007F220023039269460422AD
:102B5000029304920593FDF72DFC08B100F096FA5C
:102B600007B05DF804FB00BF800D0020000004509A
:102B70000008302E10B5044688B01422002103A8A6
:102B800000F0CAFC2268114B9A421CD14FF0B043AE
:102B900003A9DA6C42F40052DA64DA6C02F40052EF
:102BA0000292029ADA6C42F00102DA64DB6C03F002
:102BB00001030193019B402303934FF090400323B3
:102BC0000493FDF70FFE08B010BD00BF00000450D5
:102BD00000B50E4C0FCC8BB06D460FC554F8043BBE
:102BE0002B600FCC05AD0FC523682B600021684614
:102BF000FFF7A8F9064B0021186005A8FFF7A2F916
:102C0000044B18600120FFF7B5F9FBE76C350008AD
:102C1000EC0D0020E80D002030B5074D0FCD87B03A
:102C200001AC0FC42B682360002101A8FFF78AF9CB
:102C3000024B186007B030BD94350008E40D002049
:102C40004FF0B04382B0DA6C0243DA64DB6C1840B8
:102C50000190019B02B07047F0B587B014220021AB
:102C600001A800F059FC0420FFF7EAFF8020FFF7DD
:102C7000E7FF0220FFF7E4FF0120FFF7E1FF2E4E00
:102C80002E4F1020FFF7DCFF00224FF403414FF0DE
:102C90009040FDF759FE304601220721FDF754FE12
:102CA000012238461021FDF74FFE0024082303259A
:102CB00001A92348019302950394FDF793FD40F287
:102CC0001D4301A94FF09040019302950394FDF735
:102CD00089FD2023019301A91A4B02934FF09040E4
:102CE00001250394FDF77EFD4FF4034301A94FF046
:102CF00090400193029503940494FDF773FD06231D
:102D0000019301A911233046029303940494FDF723
:102D100069FD01A930460195029503940494FDF7DD
:102D200061FD102301A93846019302950394049490
:102D3000FDF758FD07B0F0BD000400480010004842
:102D4000001C00480000111008B51448144B036023
:102D5000A3F13E53A3F57D23A3F244630222436013
:102D600000238360C260436101228361C361036207
:102D700043628362C36248F20D3302610363FEF76C
:102D80003FFD08B100F082F90448FEF79BFD18B141
:102D9000BDE8084000F07AB908BD00BFF00D002082
:102DA00000540040F0B5044689B01422002103A865
:102DB00000F0B2FB22681D4B9A4235D14FF0B0446F
:102DC0001227E36C1A4843F00203E364E36C03F058
:102DD00002030293029BE36C43F00103E364E36CA0
:102DE000049703F001030193019B01264FF4407304
:102DF000042503A9039305960795FDF7F3FC022329
:102E0000039303A900234FF090400693049705967F
:102E10000795FDF7E7FCA36D43F40013A365A36DCD
:102E200003F400130093009B09B0F0BD0054004070
:102E30000004004810B5002204464FF480714FF0A2
:102E40009040FDF781FD012321461A460548FEF713
:102E500012FE01224FF480714FF09040BDE8104007
:102E6000FDF772BD400E002007B502ACFF2304F849
:102E7000013DFE259DF8073003F07F027F2A1CBF2D
:102E80005B0043F0010320460CBF8DF807508DF81E
:102E90000730FFF7CFFF3220FFF76CF8EAE70000BA
:102EA000002201210148FDF74FBD00BF000400488A
:102EB000002210210148FDF747BD00BF0010004867
:102EC000002202210148FDF73FBD00BF0004004879
:102ED000012211460148FDF737BD00BF000400483C
:102EE000012210210148FDF72FBD00BF001000484E
:102EF000012202210148FDF727BD00BF0004004860
:102F000008B5FFF7CDFF4FF4C870FFF733F8FFF7B0
:102F1000CFFF4FF4C870FFF72DF8FFF7D1FF4FF444
:102F2000C870FFF727F8FFF7D3FF4FF4C870FFF71B
:102F300021F8FFF7D5FF4FF4C870FFF71BF8FFF734
:102F4000D7FF4FF4C870FFF715F8DAE72DE9F04125
:102F5000AEB04822002108A800F0DEFA1C220021B1
:102F600001A800F0D9FA002150221AA800F0D4FAE2
:102F70004FF0B0420225D2F8903023F01803C2F887
:102F80009030D2F8003423F4C06343F40073C2F8E5
:102F90000034D2F80034139503F4C0630093009B0F
:102FA0002F2308934FF480724FF4803309930B92D0
:102FB000012340220A930F930C9214936022202342
:102FC00011924FF4003805224FF000564FF0007771
:102FD0000DEB03000D921693CDF85C8019961897AF
:102FE000FDF7E8FD6F2304210193032300240DEB7B
:102FF000010002938023069303940494059407949C
:10300000FEF796F843F204531A9318231B934FF0DC
:1030100088531F934FF4403322934FF080632793DC
:103020004FF0805329931AA84FF400432B93CDF807
:1030300070801D971E962C952D94FEF738FAFEF79A
:10304000D8FB2EB0BDE8F08108B5FDF799F8FFF781
:103050007DFFFFF701FEFFF74FFDFFF775FE00F064
:1030600016F800F059F900F0BDF900F011F8FFF77B
:10307000D3FDFEF762FFFEE70268034B9A4201D1DF
:10308000FDF794B8704700BF002C014070477047AF
:103090001148124908B54FF482724FF400434FF4BF
:1030A000E06E80E80E4002230361012343614FF488
:1030B000007383612823C3610722002303624362F4
:1030C0008362C26203634363FEF784FC18B1BDE808
:1030D0000840FFF7DBBF08BD400E00200030014074
:1030E00030B5044689B01422002103A800F014FA78
:1030F00022681C4B9A4232D14FF0B04302251A6E1F
:1031000042F480521A661A6E02F480520292029AB7
:10311000DA6C42F00102DA64DA6C02F00102019228
:10312000019ADA6C42F00202DA64DB6C049503F077
:1031300002030093009B0524802303A94FF09040D5
:1031400003930794FDF74EFB0823039303A9002381
:1031500005480495059306930794FDF743FB09B0D2
:1031600030BD00BF003001400004004800220F21A4
:103170006FF00100FDF7F6BA10B501468AB00022E3
:103180001920FDF7EFFA1920FDF720FB4FF0B043AF
:1031900001A91A6E124C42F400621A661B6E03F407
:1031A0000063029303A8029BFEF730F9FEF71CF9B7
:1031B0000C4B236040F2E733E3600B4BB0FBF3F0C2
:1031C00001380023606020462361A360FEF716FEED
:1031D00020B92046FEF70EFD0AB010BD0120FBE726
:1031E000A40E0020002C014040420F007047FEE773
:1031F000FEE7FEE7FEE770470148FEF715BD00BF9A
:10320000A40E0020174B00219960D3F8882042F4C7
:103210007002C3F888204FF0B0436FF4827C1A68C4
:1032200042F001021A604FF4E0229A601868A2F19D
:10323000A262624402401A60D3F8942022F0050290
:10324000C3F89420D3F8982022F00102C3F8982004
:10325000054ADA601A611A6822F480221A609961BC
:10326000704700BF00ED00E0001004224FF0B042B4
:10327000244913689068C3F3031300F00C0010B5E1
:1032800051F823401146204A0C2839D8DFE800F0D5
:1032900038383838073838381638383818001B4B63
:1032A00013604FF0B0431A4899681368C1F30311D3
:1032B00050F82110B3FBF1F3136010BD154BEFE78D
:1032C000C868CB6800F00300C3F30213022803F1BF
:1032D00001030ED10D49B1FBF3F34FF0B041C868C3
:1032E000C968C0F30620490F43430131B3FBF1F332
:1032F000D6E7032801D10749EDE7B4FBF3F3ECE788
:103300001460CEE73C360008100000200024F400D2
:10331000DC3500080048E8011248134908B54FF0B1
:1033200080524FF0807380E80E00012202614FF45A
:10333000005200238261A02203734361C2610362D1
:103340004362836280F82C30E022436310230263DF
:103350008363FEF784FD18B1BDE80840FFF796BE11
:1033600008BD00BFE40E00200040024010B5044636
:1033700088B01422002103A800F0CEF82268174B71
:103380009A4229D14FF0B04309249A6C144842F470
:1033900080329A649A6C02F480320292029ADA6C59
:1033A00042F00202DA64DB6C079403F0020301933B
:1033B000019B1023039303A912230493FDF712FA30
:1033C000E02303930223049303A9002304480593F5
:1033D00006930794FDF706FA08B010BD00400240BE
:1033E0000004004808B50B480B4B4FF0080E80E86E
:1033F0000840022383600361002343618361C3614A
:103400000362FDF7A6FA18B1BDE80840FFF73EBE1B
:1034100008BD00BF280F00200068004010B504461A
:1034200088B01422002103A800F076F82268124B1D
:103430009A421FD14FF0B04403A9E36C43F001035B
:10344000E364E36C03F001030293029B4FF4C05367
:103450000393022304934FF090400A230793FDF750
:10346000C1F9A36D43F08063A365A36D03F080638E
:103470000193019B08B010BD006800400D488546CF
:103480000D480E490E4A002302E0D458C4500433BC
:10349000C4188C42F9D30B4A0B4C002301E0136093
:1034A0000432A242FBD3FFF7ADFE00F011F8FFF7A4
:1034B000CBFDFEE7000003200400002014000020E4
:1034C00084360008140000209C110020FEE7000054
:1034D00070B50D4E0D4CA41BA4100025A54209D1BA
:1034E0000B4E0C4C00F020F8A41BA4100025A542A4
:1034F00005D170BD56F8253098470135EEE756F8EE
:10350000253098470135F2E77C3600087C36000804
:103510007C3600088036000802440346934200D1FE
:10352000704703F8011BF9E7F8B500BFF8BC08BC09
:103530009E467047F8B500BFF8BC08BC9E46704771
:1035400012000000240000003600000040000000CF
:10355000060000000C000000100000000000000049
:10356000010000000200000004000000BA3500085D
:10357000692E00080000000000000000800000002C
:10358000AD350008012F0008000000000000000019
:1035900080000000CD350008D12B0008000000009D
:1035A000000000008000000049444C450072676242
:1035B0004C696768745461736B0073686966745210
:1035C00065674C69676874735461736B0064656602
:1035D00061756C745461736B0000000001000000A1
:1035E00003000000050000000100000001000000D1
:1035F000060000000A000000200000000200000099
:10360000040000000800000010000000400000005E
:103610008000000000010000000200000000000027
:103620000000000000000000000000000100000099
:10363000020000000300000004000000A08601005A
:10364000400D0300801A060000350C0040420F00B8
:1036500080841E0000093D0000127A000024F4005E
:1036600000366E010048E801006CDC02000000003A
:0C3670000000000000000000000000004E
:04367C0065010008DC
:0436800041010008FC
:103684000100000010000000AAAAAAAA00093D0037
:040000050800347D3E
:00000001FF
