:020000040800F2
:10000000000003207D400008853D0008873D000872
:10001000893D00088B3D00088D3D00080000000070
:10002000000000000000000000000000D12C0008CB
:100030008F3D000800000000612D0008C52D00085C
:10004000CD400008CD400008CD400008CD4000085C
:10005000CD400008CD400008CD400008CD4000084C
:10006000CD400008CD400008CD400008CD4000083C
:10007000CD400008CD400008CD400008CD4000082C
:10008000CD400008CD400008CD400008CD4000081C
:10009000CD400008CD400008CD400008CD4000080C
:1000A000CD400008913D0008CD400008CD4000083B
:1000B000CD400008CD4000089D3D0008CD4000081F
:1000C000CD400008CD400008CD400008CD400008DC
:1000D000CD400008CD400008CD400008A93D0008F3
:1000E000CD400008CD400008CD400008CD400008BC
:1000F000CD400008CD400008CD400008CD400008AC
:10010000CD400008CD400008CD400008CD4000089B
:10011000CD400008CD400008CD400008CD4000088B
:10012000CD400008CD400008CD400008CD4000087B
:0C013000CD400008CD400008CD40000884
:1001400010B5054C237833B9044B13B10448AFF311
:1001500000800123237010BD340000200000000047
:100160002841000808B5034B1BB103490348AFF30E
:10017000008008BD00000000380000202841000871
:10018000094A136843F4807310B50320136000F02C
:10019000D7FA002003F0BCFD044618B903F0B2FD05
:1001A000204610BD0124FBE700400058034A0449E3
:1001B000136809680B441360704700BF6019002082
:1001C00004000020014B1868704700BF6019002030
:1001D000014B1868704700BF0800002030B5CC0DF7
:1001E00004F004041430C1F30451235807258D4052
:1001F00023EA050302FA01F11943215030BD80685A
:1002000000F0010070478068C0F380007047000074
:1002100037B500230193044600287BD0456D25B9EE
:1002200003F0B8FAA56584F85050206883689B00F5
:1002300072D48368DD0076D58368D90040F181806F
:100240000021FFF7E0FF636D13F0100F636D5ED1C7
:1002500000285CD123F4817343F0020363652068B6
:10026000FFF7CDFF50B94E48FFF7C9FF30B94D4AEF
:100270006068936823F47C1303439360E068636BC6
:1002800094F820200343A0680343607E012A43EAD8
:10029000403343EA024302BF626A02F1FF3243EA9B
:1002A0004243A26A22B1E06A02F47072024313432D
:1002B00020683D4AC5682A401343C360FFF7A3FF87
:1002C00023689A68120746D52269012A05BF186B70
:1002D000E2691A6B02F1FF3206BF20F00F00024301
:1002E00022F00F021A63636D23F0030343F001034E
:1002F0006365084603B030BD019B013B0193019B40
:10030000002BF9D198E71A6922F0010245E043F089
:10031000100363650121ECE7836823F0204323F099
:100320003F03836085E78368204A23F0104323F06E
:100330003F0343F0805383601D4B1B68B3FBF2F314
:10034000DCE7636D43F010036365A36D43F00103C5
:10035000A365012175E70028B6D1D86894F830204C
:10036000257E520020F4804042EA853220F00200CF
:100370000243DA6094F83820012AC4D1256CE26B7C
:1003800018692A43656C42F001022A43A56C20F4E7
:10039000FF602A4320F0040002431A6194E700BF83
:1003A000000004500003045007C0F0FF400D03009C
:1003B00010000020F7B50023019390F85030012B76
:1003C00005460C4600F07481012380F85030006827
:1003D000FFF719FF002840F065814A682868236804
:1003E000910901F00C0100F1300702F01F02CE5913
:1003F0004FF01F0EC3F3846393400EFA02F226EA15
:1004000002021343CB51FFF7FEFE2B689A681207D6
:1004100040F150812868FFF7F2FE00286DD00020DF
:10042000002385F8503003B0F0BD196E196EC2F389
:100430001206C1F38461002E3ED1C2F384628A4267
:1004400002BF1A6E22F000421A665A6E22685E6E71
:10045000C2F31207C6F3846600F10C018FBBC2F32E
:100460008467BE4240F049815A6E22F000425A66CB
:10047000226883688368C2F3120700F10806C3F399
:10048000846357BBC2F384629A4240F03D81336873
:1004900023F000433360C3682368C268C3F31200CB
:1004A000C2F3846220BBC3F38463934202BF0B6830
:1004B00023F000430B60ADE792FAA2F2B2FA82F2A7
:1004C000BDE792FAA2F7B7FA87F7BE42CCD003F1A4
:1004D00068069F6E9B6EC3F3846392FAA2F2B2FA2F
:1004E00082F29A42D3D0C368C2682368C2F384629E
:1004F00093FAA3F3B3FA83F3D7E7E668286823688F
:10050000844AD0F8B01006F0180EC3F3120722FA8E
:100510000EF21A4021EA07010A43C0F8B0207E4AD1
:10052000964248D1DFB99E0E013606F01F02092A15
:100530004FF001014FEA86662BD906F0F84691404C
:1005400041EA0602002F7CD19B0E013303F01F030A
:1005500003EB43011E39090541F0007127E093FACE
:10056000A3F2B2FA82F2013202F01F02092A52D932
:1005700093FAA3F2B2FA82F20132920602F0F8463E
:1005800093FAA3F1B1FA81F1013101F01F020121C7
:10059000D5E706F0F846914041EA0602002F4BD11C
:1005A000990E013101F01F0101EB410109051143D1
:1005B000A268FFF713FE2368584A1A423FF42FAF90
:1005C000574F584A38469368FFF719FE002863D101
:1005D00021685548814203F0E07637D11B023FF590
:1005E0001EAF2B68BB427FF41AAF936823F0E07311
:1005F000334343F4000393604C4B4D4A1B68B3FBF9
:10060000F2F20C2353430193019B002B3FF407AFFD
:10061000019B013BF7E793FAA3F6B6FA86F601369B
:10062000B60606F0F84693FAA3F1B1FA81F101316A
:1006300001F01F020121AEE793FAA3F1B1FA81F1B3
:10064000AFE793FAA3F3B3FA83F37EE73948814225
:100650000FD113F080707FF4E2AE2B68BB427FF4C1
:10066000DEAE936823F0E073334343F0807393600E
:10067000D6E6314881427FF4D2AE13F480007FF495
:10068000CEAE2B68BB427FF4CAAE936823F0E07312
:10069000334343F48003EAE76B6D43F020036B655B
:1006A0000120BDE66A6D42F020026A651846B7E691
:1006B0000220B8E600287FF4ADAE1846A268216893
:1006C000FFF78CFD26692B682268D968042E03F198
:1006D00060003FF4AAAEC1F3C1035900636950F84A
:1006E000267002F0F84242F000428B401343134A56
:1006F0003A40134340F826308CE603F168069F6EBB
:100700009B6EC3F38463BDE6C368C2682368C2F30B
:100710008462C8E6FFFF070000007F4000000880F9
:100720000000045000030450000052C710000020D5
:10073000400D0300000084CB0100008000F0FF03A7
:10074000074AD36823F4E0631B041B0C43F0BF6328
:10075000000243F4003300F4E0600343D3607047C9
:1007600000ED00E0174B30B5DC68C4F30224C4F19F
:100770000703251D042B28BF0423062D4FF0010578
:1007800005FA03F303F1FF338CBF033C0024194047
:10079000A14005FA04F4013C2240002842EA01028B
:1007A0004FEA0212AFBF00F1604000F00F00064BAD
:1007B000D2B2A5BF00F56140D2B21A5480F800232E
:1007C00030BD00BF00ED00E014ED00E04209012360
:1007D00000F01F0003FA00F0014B43F822007047BD
:1007E00000E100E02DE9F04F554AD1F800800023E8
:1007F0004FF00F0938FA03F401D1BDE8F08F01245E
:1008000004FA03FA18EA0A0500F08F804C6824F015
:10081000100BBBF1020F11D1DF0800EB870703F0CB
:10082000070E3E6A4FEA8E0E09FA0EFC26EA0C0C01
:100830000E6906FA0EF646EA0C063E624FEA430CD3
:100840000327066807FA0CF7FF4304F0030E3E4047
:100850000EFA0CFE0BF1FF3B4EEA0606BBF1010F50
:10086000066011D8866806EA070BCE6806FA0CFE09
:100870004EEA0B068660466826EA0A0AC4F30016AA
:100880009E4046EA0A064660C66837408E6806FA09
:100890000CF63743E600C76047D523F0030707F19E
:1008A000804707F5803703F0030EBE684FEA8E0ECF
:1008B00009FA0EFCB0F1904F26EA0C0C37D0214E0D
:1008C000B04236D006F58066B04234D006F5806678
:1008D000B04232D006F58066B04214BF0726042627
:1008E00006FA0EF646EA0C06BE60D2F88060EF43C8
:1008F00014F4803F0CBF3E402E43C2F88060D2F813
:10090000846014F4003F0CBF3E402E43C2F8846064
:10091000166814F4801F0CBF3E402E4316605668C4
:10092000A40254BF3E402E435660013362E70026C6
:10093000D6E70126D4E70226D2E70326D0E700BF98
:1009400000080058000400480AB1816170478162C4
:10095000704743690B4214BF81628161704710B5D3
:10096000044600284AD090F8413003F0FF021BB93A
:1009700080F8402003F028F8242384F841302368CD
:10098000E1681A6822F001021A60626822F070625F
:100990001A619A68012922F400429A60A26824D15F
:1009A00042F400429A605A68616942F0007242F46F
:1009B00000425A60DA6822F40042DA6022690A438F
:1009C000A16942EA0122DA60216AE2690A431A60F7
:1009D0001A6842F001021A6000202023606484F843
:1009E0004130206384F8420010BD42F404420229E1
:1009F0009A6004BF4FF400625A60D4E7012010BD32
:100A00000268436B9169126803B11847704790F808
:100A10004120D2B2202A10B51DD190F84030012BD0
:100A200019D0242380F8413003681C6824F00104A5
:100A30001C601C6824F480541C601C6821431960ED
:100A4000196841F001011960002380F8412080F805
:100A50004030184610BD022010BD10B590F841403E
:100A6000E4B2202C1CD190F84030012B18D0242364
:100A700080F8413003681A6822F001021A601A688F
:100A800022F4706242EA012119601A6842F0010200
:100A90001A60002380F8414080F84030184610BDAD
:100AA000022010BD70B5044686B0002857D090F8DB
:100AB000293203F0FF021BB980F8282203F0AEFAB6
:100AC000032384F82932206801F0BBFA0022606811
:100AD00001261546D3B2984202F1010220D8002225
:100AE0001146D3B2984202F1010228D804F110064F
:100AF0000FCE6D460FC533682B60231D0ECB2068CB
:100B000001F0A9FA0025012384F8245084F8293241
:100B1000E369012B02D1204600F024F828461FE0AB
:100B200004EB431181F82830CB8602335B0181F856
:100B3000296081F82B508D63CD63E550CAE704EB43
:100B4000431585F828310A335B0185F8291185F8AA
:100B50002B11C5F83811C5F83C11E150C1E701204F
:100B600006B070BD026803460121C0F8681200207B
:100B700083F86002B2F854309BB20B43A2F85430B1
:100B8000B2F854309BB243F00203A2F854307047DD
:100B9000024A136843F480731360704700040058DE
:100BA000024B186800F4C060704700BF0004005892
:100BB0004FF0B0431868C0F3404070474FF0B04367
:100BC0001868C0F3802070474FF0B043D3F894000A
:100BD000C0F3400070474FF0B0431868C0F34000C6
:100BE00070474FF0B042136823F0F00318431060D1
:100BF00070474FF0B043186800F0F000B02828BFED
:100C0000B02070474FF0B042536823F47F4343EA6B
:100C10000020506070474FF0B0431868C0F3406048
:100C200070470000B028324B324A98BF0009F0B537
:100C30008CBFDD6A53F820502F4C4FF0B0438DB07D
:100C4000D3F8083103F00F0304AE52F82330B5FB9C
:100C5000F3F52A4BB5FBF3F5FFF7A2FF074694E83F
:100C60000F0086E80F0004F1100207CA01AB1C3424
:100C700083E8070094E80F00B7F5007F0CAC04E9A7
:100C80000F001FD1002356F82320954215D80CAA37
:100C900002EB830353F8104C194D2B6823F0070324
:100CA00023432B60FFF78EFA06462B6803F00703F9
:100CB0009C4216D100200DB0F0BD0133042BE2D1CF
:100CC0000024E9E7019B9D4207D9029B9D4206D97A
:100CD000039B9D42F4D80223D9E70023D7E70123E1
:100CE000D5E7FFF76FFA801B0228DED90320E2E781
:100CF00050420008F04100084041000840420F0007
:100D000000400058F8B5044608B90120F8BD036852
:100D10009D0629D54FF0B0429368D26813F00C03BA
:100D200005D00C2B45D102F00303012B41D1FFF775
:100D300052FF10B1E369002BE7D0626AFFF759FF59
:100D40008242606A2AD9FFF76DFF0028DDD1606A10
:100D5000FFF747FF206AFFF755FF03F05FF8002019
:100D600002F0D6FF0028D0D12368D8074ED42368DC
:100D7000990700F19880236813F0180F40F0D9808C
:100D800023685A0700F1658123685A0600F1B7818C
:100D9000E16A002940F0DF810020F8BDFFF721FF64
:100DA000206AFFF72FFF606AFFF73CFF0028D4D0CE
:100DB000ABE7E2694FF0B043BAB11A6842F0010202
:100DC0001A60FFF7FFF90546FFF705FF30B1606ACB
:100DD000FFF707FF206AFFF715FFC5E7FFF7F2F9F6
:100DE000401B0228F0D90320F8BD1A6822F0010246
:100DF0001A60FFF7E7F90546FFF7EDFE0028B3D0CC
:100E0000FFF7E0F9401B0228F6D9ECE74FF0B042BB
:100E10009368D26803F00C03082B05D00C2B0BD180
:100E200002F00303032B07D1FFF7C2FE00289ED078
:100E30006368002B9BD168E76268B2F5803F4FF092
:100E4000B04310D11A6842F480321A60FFF7BAF941
:100E50000546FFF7ADFE002889D1FFF7B3F9401B27
:100E60006428F6D9BFE7B2F5A02F04D11A6842F47E
:100E700080221A60E6E7196821F480311960196848
:100E800021F480211960002AE0D1FFF79BF9054683
:100E9000FFF78EFE00283FF46AAFFFF793F9401B7F
:100EA0006428F5D99FE74FF0B0429368D26803F009
:100EB0000C03042B05D00C2B14D102F00303022BDE
:100EC00010D1FFF77BFE18B1E368002B3FF41DAF94
:100ED0004FF0B0422169536823F0FE4343EA0163B7
:100EE000536048E7E2684FF0B04382B11A6842F4B9
:100EF00080721A60FFF766F90546FFF75FFE00286B
:100F0000E6D1FFF75FF9401B0228F6D96BE71A68B4
:100F100022F480721A60FFF755F90546FFF74EFE7E
:100F200000283FF428AFFFF74DF9401B0228F5D900
:100F300059E762694FF0B045002A6BD0DB0643D514
:100F4000FFF742FE10B34FF0B045D5F8943043F0B0
:100F50000403C5F89430FFF735F90646D5F8943008
:100F60001F0740F17881D5F89430A26923F47063AB
:100F700043EA0223C5F89430D5F8943023F00103F6
:100F8000C5F89430FFF71EF9054618E0D5F89430FF
:100F900043F00103C5F89430FFF714F90546FFF755
:100FA00013FE0028CFD1FFF70DF9401B0228F6D918
:100FB00019E7FFF707F9401B02283FF614AFFFF7C8
:100FC00003FE0028F5D1DBE6D5F8943043F00103A9
:100FD000C5F89430FFF7F6F80646FFF7F5FD98B12F
:100FE0004FF0B0431D46D3F8942022F00402C3F81A
:100FF0009420D5F8943018077FF5C2AEFFF7E2F8D9
:10100000801B0328F5D9EEE6FFF7DCF8801B0228E9
:10101000E3D9E8E6D5F8943023F00403C5F894301A
:10102000FFF7D0F80646D5F89430190740F11A8139
:10103000FFF7C8F8801B0328F5D9D4E6FFF7C2F8FC
:10104000401B02283FF6CFAEFFF7BEFD0028F5D1CA
:1010500096E6894D2B68DB051CD5A368012B4FF064
:10106000B04525D1D5F8903043F00103C5F8903054
:10107000FFF7A8F84FF0B047064641F28835D7F899
:10108000903098073FF580AEFFF79CF8801BA84290
:10109000F5D9A8E6FFF77CFDFFF794F806462B6824
:1010A000DF05DAD4FFF78EF8801B0228F7D99AE61D
:1010B000052B06D1D5F8903043F00403C5F89030E5
:1010C000D0E7D5F8902022F00102C5F89020D5F89D
:1010D000902022F00402C5F89020002BC8D1FFF721
:1010E00071F841F288360746D5F8903099077FF5B8
:1010F0004BAEFFF767F8C01BB042F5D973E6A36AA1
:101100004FF0B0459BB1D5F8983043F00103C5F8D6
:101110009830FFF757F80646D5F898309A073FF50C
:1011200037AEFFF74FF8801B0228F5D95BE6D5F8FC
:10113000983023F00103C5F89830FFF743F80646CE
:10114000D5F898309B077FF523AEFFF73BF8801B5F
:101150000228F5D947E64FF0B0439A6802F00C0236
:101160000C2A52D01A68022922F080721A6034D1F7
:10117000FFF728F80546FFF74EFD40BB4FF0B042A1
:10118000616B236BD0680B433C4901400B43E16B1F
:101190000B43216C0B43616C0B43A16B43EA0123AE
:1011A000D360136843F080731360D36843F08053B7
:1011B000D360FFF707F80446FFF72DFD00287FF402
:1011C000EBADFEF7FFFF001B0228F5D90BE6FEF79B
:1011D000F9FF401B0228CED905E6DA6822F00302A7
:1011E000DA60DA6822F0885222F48032DA60FEF7A0
:1011F000E9FF0446FFF70FFD00283FF4CDADFEF7F1
:10120000E1FF001B0228F5D9EDE5D868236B00F05B
:1012100003029A427FF479AD626B00F0700393424F
:101220007FF473ADA26BC0F3062393427FF46DADE0
:10123000E26B00F4781393427FF467AD226C00F008
:10124000606393427FF461AD636C00F06040C01A4C
:1012500018BF0120F8BDFEF7B5FF801B03287FF6FD
:101260007DAEC0E5D5F8943023F00103C5F8943085
:10127000FEF7A8FF0546E7E6000400588C80C11180
:101280002DE9F0410D46044610B90120BDE8F0817A
:10129000794E336803F007038B4272D323689907B2
:1012A0000ED54FF0B046A268B36823F0F0031343A5
:1012B000B360FEF787FF0746B368DB0340F1B880F1
:1012C00023689A0611D54FF0B0466269D6F8083106
:1012D00023F0F0031343C6F80831FEF773FF074607
:1012E000D6F80831990340F1AA802368580612D530
:1012F0004FF0B046A269D6F8083123F00F0343EA55
:101300001213C6F80831FEF75DFF0746D6F808311C
:10131000DB0340F19B8023685A070ED54FF0B0469F
:10132000E268B36823F4E0631343B360FEF74AFF57
:101330000746B368990340F19080236818070FD5DA
:101340004FF0B0462269B36823F4605343EAC20306
:10135000B360FEF737FF0746B3685B0340F1848054
:101360002368DA0723D4444C236803F007039D4223
:101370004BD302F053FDFEF72BFFBDE8F04102F026
:10138000C7BC336823F007030B433360FEF71AFF33
:101390000746336803F007039D423FF47FAFFEF733
:1013A00011FFC01B0228F4D90320BDE8F081636857
:1013B000022B1ED1FFF7FCFB00283FF466AF4FF075
:1013C000B0466268B36823F003031343B360FEF7CB
:1013D000F9FE41F288380746B368626803F00C03EF
:1013E000B3EB820FBFD0FEF7EDFEC01B4045F3D933
:1013F000DAE7032B02D1FFF70EFCDDE713B9FFF7A5
:10140000EAFBD9E7FFF7DAFBD6E7236823F0070307
:101410002B432360FEF7D6FE0646236803F007033E
:101420009D42A6D0FEF7CEFE801B0228F5D9BBE771
:10143000FEF7C8FEC01B02287FF63EAFB4E7FEF7FA
:10144000C1FEC01B02287FF64BAFADE7FEF7BAFE28
:10145000C01B02287FF65AAFA6E7FEF7B3FEC01BFB
:1014600002287FF666AF9FE7FEF7ACFEC01B02289E
:101470007FF672AF98E700BF004000584FF0B042CF
:1014800008B5936813F00C0307D1FFF7B2FB1F4BAD
:10149000C0F3031053F8200008BD042B33D0082BF1
:1014A00007D113681A4813F4801F1A4B08BF184657
:1014B00008BDD36803F00303022B22D0032B18D1FD
:1014C0001368144813F4801F114B08BF03464FF0F4
:1014D000B042D068D168D268C0F306205843C1F347
:1014E00002130133B0FBF3F0530F0133B0FBF3F001
:1014F00008BDFFF77EFB054BC0F3031053F8203007
:10150000E5E7034BE3E7024808BD00BF504200088F
:101510000024F4000048E80108B5FFF7AFFF4FF0E2
:10152000B043044A9B68C3F3031352F82330B0FB63
:10153000F3F008BDF041000808B5FFF7EDFF4FF0EC
:10154000B043054A9B68C3F3C22352F8233003F02B
:101550001F03D84008BD00BF304200086F2303605E
:101560004FF0B0439A6802F00C0242609A6802F0B1
:10157000F00282609A6802F4E062C2609A6802F443
:1015800060520261D3F8082102F0F0024261D3F800
:1015900008311B01DBB28361024B1B6803F00703B8
:1015A0000B607047004000584FF0B043D3F89000F4
:1015B000C0F3400070474FF0B0410209D1F88830C5
:1015C00002F47F22000123EA020300F47F20184383
:1015D000C1F8880070474FF0B042136843F0806351
:1015E000136070474FF0B042136823F080631360BC
:1015F00070474FF0B0431868C0F3C0607047F8B54B
:10160000056815F04005044643D0036BB3F5800F21
:1016100015D002D8D3B101253BE0B3F5000F02D0BD
:10162000B3F5400FF7D14FF0B042216BD2F88830BC
:1016300023F440030B43C2F88830002529E04FF023
:10164000B042D36843F48033D360ECE7FFF7CAFFBE
:10165000FEF7B8FD0546FFF7CCFFA0B94FF0B0424A
:101660006168136923F4FE4343EA0123136113699C
:10167000A16823F478130B431361FFF7ACFFFEF767
:10168000A1FD0546BAE0FEF79DFD401B0228E2D908
:10169000032523681A0515D54FF0B046236CD6F8FC
:1016A000907007F44077BB420CD0FFF771FAD6F880
:1016B0009030002F40F0AD80226C23F44073134330
:1016C000C6F890302368DF0709D54FF0B041A06914
:1016D000D1F8882022F003020243C1F888209E0737
:1016E00009D54FF0B041E069D1F8882022F440627A
:1016F0000243C1F88820D8060CD5A66A4FF0B04046
:10170000310CD0F88820090422EA010242EA06429C
:10171000C0F8882099060CD5E66A4FF0B040310C2D
:10172000D0F88820090422EA010242EA0642C0F801
:1017300088205A0702D5206AFFF73DFF23681B0760
:1017400002D5606AFFF737FF2368DF0510D54FF039
:10175000B042616BD2F8883023F040630B43B1F1A3
:10176000006FC2F888307DD1D36843F08073D360B6
:101770002268960509D54FF0B041A06BD1F88830AA
:1017800023F040430343C1F88830500511D54FF092
:10179000B042E16BD2F8883023F040530B43B1F1F3
:1017A000005FC2F8883040F09480D36843F48033FF
:1017B000D3602268D10409D54FF0B041606CD1F8F4
:1017C000943023F440430343C1F8943093040DD57F
:1017D0004FF0B042E16C536A23F030030B43536285
:1017E000536AA16C23F003030B4353622846F8BDF0
:1017F000FEF7E8FC401B02283FF64AAFFFF7F9FE70
:101800000128F5D14FF0B042616913690B431361B0
:1018100009E7D6F8902042F48032C6F89020D6F836
:10182000902022F48032C6F89020226C23F440737A
:101830001343C6F89030D6F89030DB077FF542AFFF
:10184000FEF7C0FC41F28836074604E0FEF7BAFC1A
:10185000C01BB04204D8FFF7A7FE0128F6D131E73C
:1018600003252FE7B1F1806F82D1FFF7BBFEFEF7B2
:10187000A9FC0646FFF7BDFEA0B94FF0B042616873
:10188000136923F4FE4343EA012313611369E168FA
:1018900023F060630B431361FFF79DFEFEF792FC9C
:1018A00006460BE0FEF78EFC801B0228E2D90325DA
:1018B0005EE7FEF787FC801B0228F8D8FFF799FE49
:1018C0000128F6D14FF0B042616913690B431361EF
:1018D0004EE7B1F1805F7FF46CAFFFF783FEFEF758
:1018E00071FC0646FFF785FEA0B94FF0B042616873
:1018F000136923F4FE4343EA012313611369216949
:1019000023F060430B431361FFF765FEFEF75AFCBB
:1019100006460BE0FEF756FC801B0228E2D90325A1
:1019200047E7FEF74FFC801B0228F8D8FFF761FE5F
:101930000128F6D14FF0B042616913690B4313617E
:1019400037E74FF0B042136843F004031360704769
:1019500003685A6822F0E0025A604268B2F5827F5A
:101960000AD18268B2F5004F02D0B2F5806F03D180
:101970001A6822F040021A60826AB2F5005F07D14D
:101980001A6822F400521A601A6842F400521A606F
:10199000012380F85D30002380F85C30032070471D
:1019A00070B504460D4616462368986810F080000E
:1019B00000D170BD6A1CF8D0FEF704FC801B854284
:1019C000F2D82046BDE87040FFF7C2BFF8B5054623
:1019D0000C4616461F4629688868204000D1F8BD8D
:1019E000B4F5C06F08BF0B7B731CF5D0FEF7EAFBA4
:1019F000C01B8642EFD82846BDE8F840FFF7A8BFD5
:101A000070B513460D4616460A464FF4C0510446BB
:101A1000FFF7DCFF28B1236E43F020032366032089
:101A20000FE0324629462046FFF7BAFF0028F2D1E0
:101A300033462A464FF4C0612046FFF7C7FF00280F
:101A4000E9D170BD70B5044600284AD000238362F6
:101A500090F85D3003F0FF021BB980F85C2002F0C3
:101A60000BF90223216884F85D300B68E26823F0EB
:101A70004003B2F5E06F0B604FF000032ED918461B
:101A8000B2F5706F18BFA362236B2BB9B2F5E06F8C
:101A90008CBF022301232363A6686368A5693343CF
:101AA0002669334366693343E6693343266A334321
:101AB000A66A334305F4007633430B60636A1A4326
:101AC000636B2D0C1A4305F004052A4302430123DE
:101AD00000204A60206684F85D3070BD4FF480506D
:101AE000D0E7012070BD2DE9F3411E4690F85C302F
:101AF000012B04460D46904600F0B180012380F88A
:101B00005C30FEF75FFB074694F85D00C0B2012829
:101B100040F0A380002D5FD0B8F1000F5CD003230C
:101B200084F85D300020A36820662064A4F83E801D
:101B3000A4F84400A4F846002065E0642068A5638A
:101B4000B3F5004F08BF0368A4F83C8004BF43F41A
:101B50008043036003685B065EBF036843F0400395
:101B60000360E368B3F5E06F63683ED913B1B8F181
:101B7000010F07D135F8023BC360A563E38F013B3A
:101B80009BB2E387E38F9BB2A3B93A463146204626
:101B9000FFF736FF00285DD1A36833B901932368AE
:101BA000DA6801929B680193019B206E003018BF98
:101BB000012011E022689368980705D5A36B33F8DC
:101BC000021BD160A363D9E7FEF7FCFAC01BB04249
:101BD000D8D3711CD6D00320012384F85D300023B4
:101BE00084F85C3002B0BDE8F08113B1B8F1010FA8
:101BF00013D1E38F9BB2012B06D935F8023BC360AA
:101C0000A563E38F023B06E02B780373A36B0133DC
:101C1000A363E38F013B9BB2E387E38F9BB2002B6F
:101C2000B3D023689A6892070CD5E28FA06B92B26A
:101C3000012A04D930F8022BDA60A063E1E70278C8
:101C40001A73E3E7FEF7BEFAC01B8642E5D8731CA1
:101C5000E3D0C0E7202323669EE70220BCE70220F2
:101C6000C0E770470368DA6842F00102DA609968F9
:101C7000064A0A40062A06D0B2F5803F1EBF1A68FF
:101C800042F001021A600020704700BF0700010007
:101C9000704770477047704703681A69910710B51D
:101CA00004460FD5DA6892070CD56FF002021A616C
:101CB0009B6901229907027700F08580FFF7E9FF11
:101CC0000023237723681A69520710D5DA68500772
:101CD0000DD56FF004021A619B69022213F4407F54
:101CE0002277204675D0FFF7D4FF0023237723689F
:101CF0001A6911070FD5DA6812070CD56FF00802C0
:101D00001A61DB6904229B072277204667D0FFF720
:101D1000C0FF0023237723681A69D00610D5DA683C
:101D2000D1060DD56FF010021A61DB69082213F499
:101D3000407F2277204658D0FFF7ABFF0023237760
:101D400023681A69D20708D5DA68D00705D56FF07D
:101D500001021A61204601F05BFF23681A6911062F
:101D600008D5DA68120605D56FF080021A612046A0
:101D700000F097F823681A69D00508D5DA681106CB
:101D800005D56FF480721A61204600F08BF8236845
:101D90001A69520608D5DA68500605D56FF0400278
:101DA0001A612046FFF777FF23681A69910622D54A
:101DB000DA6892061FD56FF0200220461A61BDE84E
:101DC000104000F06DB8FFF763FF2046FFF762FF99
:101DD00076E7FFF75DFF2046FFF75CFF85E7FFF73B
:101DE00057FF2046FFF756FF93E7FFF751FF2046C6
:101DF000FFF750FFA2E710BD1A4A0368904210B5E2
:101E000002D0B0F1804F09D14C6823F070039042AA
:101E100043EA040309D0B0F1804F06D0124A904241
:101E200003D002F58062904203D1CA6823F4407364
:101E300013434A6923F08003134303608B68C36232
:101E40000B688362074B984207D003F5C053984252
:101E500003D003F58063984201D10B69036301232A
:101E6000436110BD002C01400044014010B5044600
:101E7000A0B190F83D3003F0FF021BB980F83C2080
:101E8000FFF7EFFE022384F83D302068211DFFF7A5
:101E9000B3FF012384F83D30002010BD012010BDA8
:101EA000704770477047002330B51A460F2401254C
:101EB000990004FA01F1014218BF05FA03F103F198
:101EC000010318BF0A43072BF2D1104630BD38B5C5
:101ED0000446002840D090F83C3003F0FF021BB9C4
:101EE00080F83D2002F02AF82568A168206B0223C3
:101EF00084F83C3001232B6063682A680B436169D6
:101F00000B43A1690B43E1690B43616A0B43A16A6F
:101F10000B4313432269A16B43EA42432B60237BAB
:101F2000012B02BF2B6843F480332B60636B0343A8
:101F300043EA0102D2432A61AB622962FFF7B3FF91
:101F400028636B6823F003036B600323AB600123FA
:101F500084F83C30002038BD012038BD90F83D3079
:101F6000012B4FF0020322D080F83C30036801229D
:101F700080F83D205A6842F001025A6090F82C2007
:101F8000012A5A680CBF42F0020222F002025A6093
:101F900003229A60026A62B91A6822F010021A607B
:101FA0001A6842F002021A60002380F83D30184699
:101FB00070471A6842F01002F1E7036801F00F0160
:101FC0001A6B01F110030121994031EA02030CBFA1
:101FD00001200020704703680C3103EB810358682F
:101FE000704790F83D30012B10D0012380F83D3030
:101FF000994203681A680CBF22F0100242F01002E6
:102000001A60002380F83D30184670470220704760
:10201000704708B50368DA68D10744BF01229A60A7
:10202000DA68920707D502229A60032380F83C30D1
:10203000FFF7EEFF08BD012380F83C3001F0CCFD36
:1020400008BDB0F8403023F47E535B045B0CA0F86D
:1020500040300020704784B010B503AC84E80E0017
:1020600000220123A0F84030A0F84020A0F844202E
:10207000A0F85020B0F84030BDE810409BB243F4C7
:102080003F4343F08003A0F8403004B0104670474F
:10209000074B08491B68084AB3FBF2F24FF47A7306
:1020A0004860534300204822B3FBF2F30B617047B2
:1020B000100000206419002040420F0001207047EA
:1020C0000A4B10B55B699A6899890023DCB28C428F
:1020D00001D3022010BDB2F90840844203F101038C
:1020E00001DC0C32F2E7002010BD00BF64190020B3
:1020F000804B814A814882492DE9F04F5D69814CCE
:10210000B5F80C90D5F808B0002313807E4A2380E0
:1021100013702A68038016790B7087B063F3C716B3
:10212000B9F1020F167103940490059100F29A80A0
:10213000022007B0BDE8F08FBBF9081021EAE17179
:1021400071457ADCA14200F38380B14200F38580BF
:102150002146344626460BF10C0B01330C465FFA40
:1021600083FAD145E8D8019B13B1664BA3F800E090
:102170000099614B01B11C800FB160490E8002993A
:1021800011B15F4981F8008010B15F4981F800C04A
:102190006868B3F90060C3785B08013B9E42C7DB07
:1021A000049B5949B3F800C0039B09781F88059B1D
:1021B0006C8B1B7809FB03136969A7EB0C0731F9DA
:1021C00013E0298BBFB217FB01F1A6EB0C0689B215
:1021D00017FA86F691FBF6F18BB24649C968097881
:1021E000BEF1000FD8BFCEF1000EA1F12001CCBF8F
:1021F00003EB4E03C3EB4E0301291BB23DD8002B6A
:10220000D6BFC4F580741B1B1B191BB283F30803D4
:1022100092F9051054780029D9B252DAA1423FD977
:10222000091BFE293CDC017B0C44A34227DA5379CD
:10223000817A61F3050353717AE770468E46014651
:102240000120C4460290D04607460090019081E7E5
:102250000120D446074600907CE70E460127214620
:10226000344677E718469C46029398461F461E461A
:1022700000931C4601939E4671E7DBB2C8E7517993
:1022800001F13F0464F305015171C9B211F03F043B
:102290007FF44EAF857A65F3050164F3C711517180
:1022A0005370C17AC1F108010B419178DBB29942B8
:1022B0003FF43EAF9370137943F080031371002015
:1022C00037E7A142ECD2611AFE29E9DC017B19440F
:1022D0008C42ACDB517901F13F0464F3050151718B
:1022E000C9B28C067FF424AF847A64F3050161F0EF
:1022F0007F01D4E76419002054000020560000201C
:10230000580000205200002059000020084AD368DD
:102310001B7803F0FD03212B01BF53691B681A785A
:10232000044B06BF9B6813F832000020704700BFC3
:102330006419002024000020094B5B6970B59C687B
:102340009D890C260023DAB2AA4206FB03F103F1B1
:10235000010300D370BD625C60F3C4026254F2E713
:10236000641900200B4B5B6970B59C689D89002245
:1023700002200C26D3B2AB4206FB02F100D370BDA3
:10238000635C13F0010F1EBF6FF300036354002062
:102390000132EFE76419002038B5FFF7E3FF114C75
:1023A00020B163691B681B78132B19D163691B6803
:1023B0001D78E3681B7803F0FD03212B05D10A4B40
:1023C0009B6803EBC5035B68984763691A681378D9
:1023D000AB4213790CBF6FF3861343F040031371C4
:1023E00038BD00BF64190020240000200B4B5B693E
:1023F00030B599899D680C240023DAB28A4204FB27
:1024000003F001D3022030BD2A5CC2F341029207DF
:1024100003F10103F1D5002030BD00BF6419002095
:102420002DE9F041FFF7E2FF274F58B97A691368A9
:102430005268527ADA701AB90D221A70BDE8F0812A
:102440000E22FAE77B69DFF888809C6800267969AC
:102450008D890A68F3B2AB4210D3D3780BB1013B3C
:10246000D370D37833BB1948896806881C46D8B224
:10247000854203F101031FD802231AE0D17898F8AE
:102480000430658999420BD129462046FFF716FE94
:1024900018B1A5800C340136D9E7A080BDE8F081E1
:1024A000A3882B449BB29D42A380F3D90023A38031
:1024B0000D231370BDE8F08188888C7130418880CD
:1024C0000C810C31D3E700BF6419002050000020BC
:1024D0002400002010B5FFF789FF0C4B20B95B6981
:1024E0001B6806221A7010BD5C6963685878FFF794
:1024F000E7FD23680028F4D0DA780AB1013ADA70EF
:10250000DA78002AEFD10222ECE700BF641900203C
:1025100038B5FFF76BFF104B20B95B691B680A22C7
:102520001A7038BD5C696568E878FFF7C9FD2468F2
:1025300010B90A23237038BD6878FFF7C1FD08B9C8
:102540000623F7E7E3780BB1013BE370E378002B58
:10255000F1D10223EEE700BF6419002038B5FFF780
:1025600045FF104B20B95B691B680C221A7038BDFF
:102570005C696568E878FFF7A3FD246810B90C234F
:10258000237038BD6878FFF79BFD08B90623F7E78D
:10259000E3780BB1013BE370E378002BF1D1022328
:1025A000EEE700BF6419002038B5FFF71FFF124B9C
:1025B00020B95B691B680A221A7038BD5C696568BE
:1025C000E878FFF77DFD246810B90A23237038BD31
:1025D0006878FFF775FD40B9E3780BB1013BE37014
:1025E000E378002BF3D10623F0E72B7AE3700BB9E5
:1025F0000223EBE70423E9E76419002038B5FFF76D
:10260000F5FE124B20B95B691B680C221A7038BDAD
:102610005C696568E878FFF753FD246810B90C23FE
:10262000237038BD6878FFF74BFD40B9E3780BB1F4
:10263000013BE370E378002BF3D10623F0E72B7A1C
:10264000E3700BB90223EBE70523E9E764190020E7
:1026500070B5FFF7CBFE194E50B972691368526816
:10266000527ADA7012B90D221A7070BD1122FBE78E
:1026700075696C68E078FFF723FD60B9F3681B7833
:1026800003F0FD03202B16BF0D4B2B6ADB68BDE862
:1026900070409B6818476078FFF712FD2B6830B9CF
:1026A000A279DA700AB90622DEE70822DCE7227A8C
:1026B000DA700AB90222D7E70422D5E764190020AC
:1026C0002400002070B5FFF791FE194E50B97269D1
:1026D00013685268527ADA7012B90D221A7070BDFE
:1026E0001222FBE775696C68E078FFF7E9FC60B9D6
:1026F000F3681B7803F0FD03202B16BF0D4B2B6AEC
:10270000DB68BDE870409B6818476078FFF7D8FC2D
:102710002B6830B9A279DA700AB90622DEE70922FD
:10272000DCE7227ADA700AB90222D7E70522D5E778
:1027300064190020240000200A4B10B55B69404258
:102740009A6899890023DCB28C4201D3022010BD23
:10275000B2F90840844203F1010301DD0C32F2E7D3
:10276000002010BD641900200A4B10B55B699A68FF
:1027700099890023DCB28C4201D3022010BDB2F94A
:102780000840844203F1010301DA0C32F2E7002031
:1027900010BD00BF6419002038B5FFF727FE134BAA
:1027A00020B95B691B6802221A7038BD5C696568D4
:1027B0000121A878FFF7D8FF246838B9EB79E370D6
:1027C00013B90A23237038BD0B23FBE700212878B7
:1027D000FFF7CAFF40B9E3780BB1013BE370E37840
:1027E000002BF0D10623EDE70223EBE7641900206C
:1027F00038B5FFF7FBFD134B20B95B691B6802225C
:102800001A7038BD5C6965680121A878FFF7ACFFD4
:10281000246840B9E3780BB1013BE370E3780BB96E
:102820000A23237038BD00212878FFF79DFF30B9B7
:10283000AB79E3700BB90623F3E70723F1E7022333
:10284000EFE700BF641900200A4B10B55B699A6876
:1028500099890023DCB28C4201D3002010BDB2F96B
:102860000840844203F1010301DC0C32F2E702204C
:1028700010BD00BF6419002038B5FFF7B7FD154B38
:1028800050B95A6913685268527ADA7012B90D2237
:102890001A7038BD1022FBE75D696C680121A078D1
:1028A000FFF762FF38B92B68E279DA700AB90A22B9
:1028B000EEE70B22ECE700216078FFF7C5FF002868
:1028C000E7D12B68227ADA700AB90222E0E7032204
:1028D000DEE700BF64190020084B5B6910B59A68F9
:1028E0009C8900231846D9B2A14203F1010300D309
:1028F00010BD908090710C32F5E700BF6419002084
:1029000038B5124C63691B6800221A701A7942F0BC
:1029100040021A7105460320FFF70EFD0C4B0D4ACD
:102920009988042905D010290ED008219980032107
:1029300000E00221118062691B7912681D44D57084
:10294000BDE83840FFF7C8BF0421F3E76419002051
:1029500024000020500000200D4B5B695B680522BD
:102960005A7050229A701A7102224B209A71DA71B1
:102970001A7204220A21D870DA72032001225871D7
:102980005872197019739A720020FFF7B9BF00BF0F
:102990006419002038B5FFF729FD1C4B50B95A695E
:1029A00013685268527ADA7012B90D221A7038BD63
:1029B0000F22FBE75D696C680121A078FFF7D4FE68
:1029C00038B92B68E279DA700AB90A22EEE70B22ED
:1029D000ECE700212078FFF7C7FE38B92B68A27911
:1029E000DA700AB90622E1E70722DFE70121207940
:1029F000FFF7A2FE0028DAD12B686279DA701AB9E3
:102A0000BDE83840FFF77CBF0122CFE76419002002
:102A100010B5FFF7EBFC0D4B20B95B691B68022278
:102A20001A7010BD5C69636801211879FFF784FE94
:102A300023680028F3D1DA780AB1013ADA70D8783D
:102A40000028EED1BDE81040FFF75ABF64190020FE
:102A500007B5FFF7CBFC68B91D4B5B691B68DA78DB
:102A60000AB1013ADA70DA780AB90D221A7003B0A5
:102A70005DF804FBFFF74AFC8DF807009DF807306E
:102A800003F05F038DF807309DF80730013B072BFB
:102A900019D8DFE803F00409180E181818130C4BA6
:102AA0005B6902221B68E1E7094B5B6906221B6830
:102AB000DCE7074B5B690A221B68D7E7044B5B69BD
:102AC0000C221B68D2E70020FFF71AFFCFE700BFF8
:102AD000641900200378044A203B032B98BF436805
:102AE000D06098BF53617047641900202DE9F84306
:102AF00000240668DFF85C90154F04728046254676
:102B0000B8F80420E3B2934206EBC40003D3A8F85C
:102B10000650BDE8F883FFF7DDFF16F83430212BAF
:102B200001D0232B11D1D9F80C301B6898477B6951
:102B30001B681A79520644BF012288F808201A78C7
:102B4000D9F8083013F832301D430134D8E700BFFC
:102B5000641900202400002008B500F031FC00209A
:102B600008BD30B5B0F90840028A0B4690E8220053
:102B700085B0842C14BF0334002403A80190009472
:102B8000284600F04DFB01280CBF0398002005B03B
:102B900030BD08B5002808BF012000F05FFD00200F
:102BA00008BD00F1080343604FF0FF32C3600361CA
:102BB000002382600360704700230361704743680D
:102BC0004B609A688A609A685160996003680861EE
:102BD0000133036070470A68531C30B50AD103699A
:102BE0005A684A6091608B605960036808610133DC
:102BF000036030BD00F108035C682568AA42EFD38A
:102C00002346F9E74168826803698A6082685160F7
:102C10005968884208BF5A60002202611A68013A66
:102C20001A6018687047000082B0002301930D4BB2
:102C30001B68013308D04FF0500383F31188BFF3B2
:102C40006F8FBFF34F8FFEE74FF0500383F3118870
:102C5000BFF36F8FBFF34F8F019B002BFCD002B0EF
:102C6000704700BF0C00002008480068006880F32F
:102C700008884FF0000080F3148862B661B6BFF395
:102C80004F8FBFF36F8F00DF00BF000008ED00E043
:102C9000DFF80C00016841F470010160704700002A
:102CA00088ED00E04FF0807340F8043C074B40F89B
:102CB0000C3C21F001016FF0020340F8081C40F8C1
:102CC000202C40F8243C4438704700BF292C0008D1
:102CD000074B19680868B0E8F04F80F30988BFF324
:102CE0006F8F4FF0000080F311887047AFF30080C2
:102CF000301800204FF0500383F31188BFF36F8F1B
:102D0000BFF34F8F0A4A13680133012B13600DD1B3
:102D1000084B1B6813F0FF0F08D04FF0500383F3EC
:102D20001188BFF36F8FBFF34F8FFEE7704700BF6F
:102D30000C00002004ED00E0084A136843B94FF08E
:102D4000500383F31188BFF36F8FBFF34F8FFEE7FC
:102D5000013B13600BB983F3118870470C0000200E
:102D6000EFF30980BFF36F8F154B1A681EF0100F39
:102D700008BF20ED108A20E9F04F10602DE909000E
:102D80004FF0500080F31188BFF34F8FBFF36F8F68
:102D900000F088FC4FF0000080F3118809BC19682E
:102DA0000868B0E8F04F1EF0100F08BFB0EC108AB2
:102DB00080F30988BFF36F8F704700BFAFF30080C7
:102DC0003018002008B54FF0500383F31188BFF38B
:102DD0006F8FBFF34F8F00F037FB18B1034B4FF0ED
:102DE00080521A60002383F3118808BD04ED00E0CF
:102DF000084A0949002313600B60084B4FF47A71AD
:102E00001B68B3FBF1F30649013B0B60072313601A
:102E1000704700BF10E000E018E000E01000002064
:102E200014E000E0394B3A4A13B51968914208D1D1
:102E30004FF0500383F31188BFF36F8FBFF34F8FB1
:102E4000FEE71A68334B9A4208D14FF0500383F3E0
:102E50001188BFF36F8FBFF34F8FFEE72E4B1A78A9
:102E6000D2B20192FF221A701B782C4ADBB28DF885
:102E700003309DF8033003F050031370284B0722F2
:102E80001A6000219DF80300000602F1FF340DD402
:102E900001B11A601A68032A11D04FF0500383F36E
:102EA0001188BFF36F8FBFF34F8FFEE79DF80320AC
:102EB0005200D2B28DF8032001212246E2E712022D
:102EC00002F4E0621A60019B134ADBB21370154BE7
:102ED0001A6842F470021A601A6842F070421A606E
:102EE000FFF786FF104B00241C60FFF7D1FE0F4A4E
:102EF000136843F040431360FFF7B6FE00F0D2FBC7
:102F0000FFF792FE204602B010BD00BF00ED00E0CA
:102F100071C20F4170C20F4100E400E05A0000206E
:102F20005C00002020ED00E00C00002034EF00E009
:102F300010B50F4B1A68824218D35C681919884281
:102F400001BF4168184609195960446801198A424D
:102F500007D1084909688A421FBF516812680919D8
:102F600041609842026018BF186010BD1346E1E747
:102F700028180020600000202DE9F041044600F0F0
:102F80005BFA3D493D4D0B68FBB93D4A56071CBFF6
:102F900007323C4B3C4E1ABF22F007029B1A41F20B
:102FA000B8731344083B23F00703002070603260BD
:102FB000586018600B60981A1360344B50601860AA
:102FC000334B18604FF000432B602F68274216D117
:102FD000002C41D004F1080358071CBF23F007035D
:102FE000083363B12A4A1668B342904607D8264A86
:102FF00015686868834204D809688D4207D10024A7
:103000002AE02C68002CF7D02A462546F1E72968EB
:1030100014681160C21A102A0FD9E818410708D0A5
:103020004FF0500383F31188BFF36F8FBFF34F8FBF
:10303000FEE742606B60FFF77BFF14496B6808682E
:10304000F61A1F4386424FF00003C8F8006038BFED
:103050000E6008346F602B6000F088FA630708D0B8
:103060004FF0500383F31188BFF36F8FBFF34F8F7F
:10307000FEE72046BDE8F081600000201C1800201B
:10308000640000201C1800202818002024180020AC
:103090002018002010B5044670B3184A50F8043CBC
:1030A0001268134208D14FF0500383F31188BFF325
:1030B0006F8FBFF34F8FFEE750F8081C41B14FF000
:1030C000500383F31188BFF36F8FBFF34F8FFEE779
:1030D00023EA020340F8043C00F0AEF9084A54F831
:1030E000043C1168A4F108000B441360FFF720FFB3
:1030F000BDE8104000F03ABA10BD00BF1C18002017
:1031000020180020064A13681968064B19B94FF0B9
:10311000FF321A6070471268D268D2685268F8E7C6
:10312000341800200C190020F8B51B4B1B4E1D68ED
:103130000446306804300F46FFF764FD334640B95B
:103140003168174EC96A32680120884022EA0002BD
:103150003260621C07D137B1196812480431BDE8EA
:10316000F840FFF72CBD2C441A68A542546007D9DB
:103170000D4A10681968BDE8F8400431FFF72BBD0F
:103180000A4A106819680431FFF725FD084B1A68D0
:10319000944238BF1C60F8BD54190020301800203C
:1031A000DC1800202C1900203818002034180020CA
:1031B0000C19002080B5DFF86480144F144C154EB4
:1031C000236863B9144B1B68012BF8D94FF0805367
:1031D000C8F80030BFF34F8FBFF36F8FEEE7FFF7F4
:1031E00089FDFB68DD68281DFFF70CFD3368013B96
:1031F00033602368013B2360FFF79EFD286BFFF7D8
:1032000049FF2846FFF746FFDAE700BF40190020D4
:10321000CC180020C81800203C18002004ED00E065
:103220002DE9F84F4FEA820A804650460F469946EC
:103230000B9EFFF7A1FE0546002800F09680542063
:10324000FFF79AFE0446002800F08C80AAF1040AD9
:10325000056355447B1E25F0070A00F134020F3741
:10326000597802F8011B13F8011F09B1BB42F7D1CD
:103270000A9D062D28BF06254FF0000B271DE5628D
:103280006564384684F843B0C4F848B0FFF794FC4E
:10329000C5F1070504F11800FFF78EFCC4F84CB027
:1032A0002461A561646284F850B04A4641465046A4
:1032B000FFF7F8FC206006B13460FFF71BFD324BCE
:1032C000324E1A68DFF8F08001321A603568002D3E
:1032D0004ED134601B68012B1DD108EB050014355D
:1032E000FFF75FFC8C2DF8D1DFF8D090284D4846D1
:1032F000FFF757FC2846FFF754FC2648FFF751FC20
:103300002548FFF74EFC2548FFF74BFC244BC3F83C
:103310000090244B1D60244A244913680868013337
:103320001360E26A012505FA02F3034314200B60DF
:1033300000FB02803946FFF742FCFFF7FDFC1C4B07
:103340001B6863B13368DA6AE36A9A4207D2194BA1
:103350004FF080521A60BFF34F8FBFF36F8F284634
:10336000BDE8F88F2846FFF795FE4FF0FF35F6E7EA
:103370000F4B1B68002BCED13368DA6AE36A9A429E
:1033800098BF3460C7E700BFC8180020301800207D
:10339000F418002014190020401900202C190020D6
:1033A0003418002038180020D8180020DC1800201D
:1033B0002819002004ED00E03C180020E01800204F
:1033C00013B5174B0193002400942346802215491E
:1033D0001548FFF725FF012814D14FF0500383F360
:1033E0001188BFF36F8FBFF34F8F104B4FF0FF3239
:1033F0001A600F4B18600F4B1C6002B0BDE8104004
:10340000FFF710BD013008D14FF0500383F311884E
:10341000BFF36F8FBFF34F8FFEE702B010BD00BF49
:1034200008190020BA410008B53100080C19002025
:103430002819002054190020024A13680133136030
:10344000704700BFD41800202DE9F84F3C4B1B6893
:10345000002B53D13B4B1C6801341C60BCB93A4B68
:103460001A68126842B14FF0500383F31188BFF31A
:103470006F8FBFF34F8FFEE7344A196810681860EA
:103480001160334A136801331360FFF73BFE314D7F
:10349000314F2B689C424FF0000B3ED3DFF8A880E1
:1034A000DFF8C490D8F80020126872BB4FF0FF32EA
:1034B0002A6032E006F1040A5046FFF7A3FBB16A26
:1034C00019B106F11800FFF79DFBF06AD9F800303A
:1034D000012202FA00F11943204BC9F800104FF005
:1034E000140E51460EFB0030FFF769FB3868F16A95
:1034F000C26A914228BF4FF0010BD3E7184A136804
:10350000013313604FF0000B11E0D8F80020D268AF
:10351000D66871688C42CDD229603A680F4BD16A67
:1035200014224A439A58022A28BF4FF0010B0D4A31
:103530001268002A18BF4FF0010B5846BDE8F88FFB
:10354000D418002054190020341800203818002006
:10355000101900200C190020301800203C18002001
:10356000D018002058190020DC1800202DE9F8435D
:10357000314C236843B94FF0500383F31188BFF3F4
:103580006F8FBFF34F8FFEE7FFF7B4FB2368013B5C
:10359000236024682CB10024FFF7CEFB2046BDE851
:1035A000F883264B1B68002BF5D0DFF8A890244F3A
:1035B000DFF8A480D9F80030E3B90CB1FFF7A2FD21
:1035C000204D2C6844B1204E0127FFF73DFF00B18C
:1035D0003760013CF9D12C601B4B1B68002BDAD003
:1035E0001A4B4FF080521A60BFF34F8FBFF36F8FAB
:1035F0000124D1E7D9F80C30DC68261D04F118004D
:10360000FFF700FB3046FFF7FDFAE26A3968012553
:1036100005FA02F314200B4300FB028031463B60A5
:10362000FFF7CDFA0A4BE26A1B68DB6A9A4224BFB5
:10363000054B1D60BEE700BFD4180020C81800204D
:10364000DC180020D01800205819002004ED00E0FC
:1036500030180020141900203C18002008B540B98B
:103660000E4B4FF080521A60BFF34F8FBFF36F8F36
:1036700008BD0B4B196841B14FF0500383F311881B
:10368000BFF36F8FBFF34F8FFEE7FFF7D5FEFFF756
:103690004BFDFFF76BFF0028E2D008BD04ED00E012
:1036A000D4180020174B1A68174B10B512B101221D
:1036B0001A6010BD1A60154B1B68B3FA83F3DBB2B6
:1036C000C3F11F03142212495A4388188C5844B975
:1036D0004FF0500383F31188BFF36F8FBFF34F8F09
:1036E000FEE744680832646844600A44944204BFB8
:1036F00062684260142202FB03135B68DA68054BC0
:10370000D6E700BFD418002058190020DC1800208C
:103710003C180020301800207FB518220021684690
:1037200000F0FAFC1848194B0360042200234261A0
:10373000012243608360C360036103764376C26104
:1037400080F820308362C36280F83030436380F8B1
:103750003830FCF75DFD08B100F064FA0C4A0A4805
:1037600006238DE80C007F22002303926946042281
:10377000029304920593FCF71DFE08B100F052FA83
:1037800007B05DF804FB00BF7C1900200000045066
:103790000008302E10B5044688B01422002103A87A
:1037A00000F0BAFC2268114B9A421CD14FF0B04392
:1037B00003A9DA6C42F40052DA64DA6C02F40052C3
:1037C0000292029ADA6C42F00102DA64DB6C03F0D6
:1037D00001030193019B402303934FF09040032387
:1037E0000493FCF7FFFF08B010BD00BF00000450B9
:1037F00000B50F4C8BB000F079FB0FCC6D460FC5B8
:1038000054F8043B2B600FCC05AD0FC523682B602B
:1038100000216846FFF7A5F9064B0021186005A8AE
:10382000FFF79FF9044B18600120FFF7B2F9FBE79F
:103830006C410008E8190020F019002030B5074D50
:103840000FCD87B001AC0FC42B682360002101A805
:10385000FFF787F9024B186007B030BD94410008AC
:10386000E01900204FF0B04382B0DA6C0243DA6412
:10387000DB6C18400190019B02B07047F0B587B037
:103880001422002101A800F047FC0420FFF7EAFF02
:103890008020FFF7E7FF0220FFF7E4FF0120FFF79A
:1038A000E1FF2E4E2E4F1020FFF7DCFF00224FF4D9
:1038B00003414FF09040FDF747F8304601220721C1
:1038C000FDF742F8012238461021FDF73DF80024AB
:1038D0000823032501A92348019302950394FCF7CB
:1038E00081FF40F21F4301A94FF0904001930295E0
:1038F0000394FCF777FF2023019301A91A4B02934D
:103900004FF0904001250394FCF76CFF4FF4034304
:1039100001A94FF090400193029503940494FCF7A1
:1039200061FF0623019301A91123304602930394FA
:103930000494FCF757FF01A93046019502950394C2
:103940000494FCF74FFF102301A938460193029518
:1039500003940494FCF746FF07B0F0BD0004004850
:1039600000100048001C00480000111008B5144861
:10397000144B0360A3F13E53A3F57D23A3F24463EC
:103980004360012200238360C2600361436183615D
:10399000C3610362FCF7E3FF08B100F043F90021C3
:1039A0000748FDF734F808B100F03CF9002104485D
:1039B000FDF753F818B1BDE8084000F033B908BD71
:1039C000F41900200054004010B5044688B01422B9
:1039D000002103A800F0A0FB2268174B9A4228D1CF
:1039E0004FF0B04403A9E36C144843F00203E364CE
:1039F000E36C03F002030293029B4FF440730393C2
:103A0000122304930123059304230793FCF7EAFE92
:103A1000A36D43F40013A365A36D03F40013019396
:103A20001E2000220521019BFCF79CFE1E20FCF7B6
:103A3000CDFE08B010BD00BF005400400004004897
:103A400010B5002204464FF480714FF09040FCF70F
:103A50007BFF012321461A460548FEF744F8012260
:103A60004FF480714FF09040BDE81040FCF76CBF00
:103A7000401A002007B502ACFF2304F8013DFE25E3
:103A80009DF8073003F07F027F2A1CBF5B0043F0E4
:103A9000010320460CBF8DF807508DF80730FFF763
:103AA000CFFF3220FFF775F8EAE72DE9F041AEB01D
:103AB0004822002108A800F02FFB1C22002101A8A9
:103AC00000F02AFB002150221AA800F025FB4FF03D
:103AD000B0420225D2F8903023F01803C2F890309B
:103AE000D2F8003423F4C06343F40073C2F8003406
:103AF000D2F80034139503F4C0630093009B2F2386
:103B000008934FF480724FF4803309930B92012392
:103B100040220A930F930C92149360222023119257
:103B20004FF4003805224FF000564FF000770DEBB0
:103B300003000D921693CDF85C8019961897FDF747
:103B4000E1F86F2304210193032300240DEB01000E
:103B50000293802306930394049405940794FDF73D
:103B60008FFB43F204531A9318231B934FF088538F
:103B70001F934FF4403322934FF0806327934FF00D
:103B8000805329931AA84FF400432B93CDF87080EB
:103B90001D971E962C952D94FDF731FDFDF7D1FE56
:103BA0002EB0BDE8F08108B5FCF7EAFAFFF77DFF1B
:103BB000FFF764FEFFF7B0FDFFF7D8FE00F033F823
:103BC00000F096F900F00EFA00F02EF8FFF736FE3E
:103BD000FEF7C2FFFEE7000010B501210446FEF724
:103BE000ECF9012801460DD12046FEF7F4F9064B09
:103BF000C0B26428187005D810210448BDE81040F0
:103C0000FCF7A7BE10BD00BF5C19002000100048E3
:103C10000268034B9A4201D1FCF7C8BA704700BF53
:103C2000002C0140704770471148124908B54FF405
:103C300082724FF400434FF4E06E80E80E4002239E
:103C40000361012343614FF4007383612823C3613F
:103C500007220023036243628362C26203634363F9
:103C6000FDF7F0FE18B1BDE80840FFF7DBBF08BD67
:103C7000401A00200030014030B5044689B01422BB
:103C8000002103A800F048FA22681C4B9A4232D166
:103C90004FF0B04302251A6E42F480521A661A6E33
:103CA00002F480520292029ADA6C42F00102DA6463
:103CB000DA6C02F001020192019ADA6C42F002021F
:103CC000DA64DB6C049503F002030093009B052487
:103CD000802303A94FF0904003930794FCF782FDE3
:103CE0000823039303A9002305480495059306932D
:103CF0000794FCF777FD09B030BD00BF00300140EC
:103D00000004004800220F216FF00100FCF72ABDDB
:103D100010B501468AB000221920FCF723FD1920B6
:103D2000FCF754FD4FF0B04301A91A6E124C42F457
:103D300000621A661B6E03F40063029303A8029BE1
:103D4000FDF70CFCFDF7F8FB0C4B236040F2E7336A
:103D5000E3600B4BB0FBF3F00138002360602046BA
:103D60002361A360FEF782F820B92046FDF77AFFB1
:103D70000AB010BD0120FBE7A41A0020002C01406E
:103D800040420F007047FEE7FEE7FEE7FEE77047A0
:103D90000148FDF781BF00BFA41A00200148FCF7CD
:103DA0002FBE00BFF41900200148FEF732B900BF52
:103DB000E41A0020174B00219960D3F8882042F4C0
:103DC0007002C3F888204FF0B0436FF4827C1A6809
:103DD00042F001021A604FF4E0229A601868A2F1E2
:103DE000A262624402401A60D3F8942022F00502D5
:103DF000C3F89420D3F8982022F00102C3F8982049
:103E0000054ADA601A611A6822F480221A60996100
:103E1000704700BF00ED00E0001004224FF0B042F8
:103E2000244913689068C3F3031300F00C0010B525
:103E300051F823401146204A0C2839D8DFE800F019
:103E400038383838073838381638383818001B4BA7
:103E500013604FF0B0431A4899681368C1F3031117
:103E600050F82110B3FBF1F3136010BD154BEFE7D1
:103E7000C868CB6800F00300C3F30213022803F103
:103E800001030ED10D49B1FBF3F34FF0B041C86807
:103E9000C968C0F30620490F43430131B3FBF1F376
:103EA000D6E7032801D10749EDE7B4FBF3F3ECE7CC
:103EB0001460CEE750420008100000200024F400F7
:103EC000F04100080048E80108B5074C6420FEF7FF
:103ED00060FE01212046FEF784F80120FEF759FE1E
:103EE0002046FEF73BF8F1E7E41A002000F06CB83A
:103EF0001048012208B5104B02614FF400520360D4
:103F00008261002320224360836003734361C261A6
:103F100003624362836280F82C30E0224363102303
:103F200002638363FDF7D3FF18B1BDE80840FFF7D4
:103F300079BE08BDE41A00200040024030B50446B6
:103F400089B01422002103A800F0E6F822681B4B78
:103F50009A4231D14FF0B04309259A6C184842F487
:103F600080329A649A6C02F480320292029ADA6C7D
:103F700042F00202DA64DB6C079503F0020301935E
:103F8000019B1023039303A912230493FCF72AFC3B
:103F9000E0230024039303A9022309480493059412
:103FA00006940795FCF71EFC272022460521FCF706
:103FB000D9FB2720FCF70AFC09B030BD00400240C5
:103FC000000400487047704708B50448FEF78EFDAE
:103FD0000348BDE80840FEF75BB800BF14000020AE
:103FE0009042000808B50B480B4B4FF0080E80E8D4
:103FF0000840022383600361002343618361C3613E
:104000000362FCF74FFD18B1BDE80840FFF70ABE98
:1040100008BD00BF681B00200068004010B50446C2
:1040200088B01422002103A800F076F82268124B11
:104030009A421FD14FF0B04403A9E36C43F001034F
:10404000E364E36C03F001030293029B4FF4C0535B
:104050000393022304934FF090400A230793FCF745
:10406000C1FBA36D43F08063A365A36D03F0806380
:104070000193019B08B010BD006800400D488546C3
:104080000D480E490E4A002302E0D458C4500433B0
:10409000C4188C42F9D30B4A0B4C002301E0136087
:1040A0000432A242FBD3FFF785FE00F011F8FFF7C0
:1040B0007AFDFEE700000320040000203400002009
:1040C000E443000834000020DC1D0020FEE700006F
:1040D00070B50D4E0D4CA41BA4100025A54209D1AE
:1040E0000B4E0C4C00F020F8A41BA4100025A54298
:1040F00005D170BD56F8253098470135EEE756F8E2
:10410000253098470135F2E7DC430008DC4300081E
:10411000DC430008E043000802440346934200D118
:10412000704703F8011BF9E7F8B500BFF8BC08BCFD
:104130009E467047F8B500BFF8BC08BC9E46704765
:1041400012000000240000003600000040000000C3
:10415000060000000C00000010000000000000003D
:10416000010000000200000004000000D04100082F
:10417000753A000800000000000000008000000008
:10418000BF410008C93E0008000000000000000018
:1041900080000000E3410008F13700080000000043
:1041A00000000000800000000000A0FF00002000D0
:1041B000000060FF00006000000049444C450074AE
:1041C0006F75636853656E73696E675461736B00D6
:1041D00073686966745265674C6967687473546183
:1041E000736B0064656661756C745461736B000079
:1041F00001000000030000000500000001000000B5
:1042000001000000060000000A000000200000007D
:104210000200000004000000080000001000000080
:1042200040000000800000000001000000020000CB
:10423000000000000000000000000000000000007E
:104240000100000002000000030000000400000064
:10425000A0860100400D0300801A060000350C0006
:1042600040420F0080841E0000093D0000127A00C9
:104270000024F40000366E010048E801006CDC0206
:10428000000000000000000000000000000000002E
:10429000E0420008D8420008281B0020010000006E
:1042A0002000000002000000EC420008DA42000892
:1042B000281B002001000000400000000200000058
:1042C000F8420008DC420008281B00200100000022
:1042D0008000000002000000000001000200000059
:1042E00001000000200000000200000001000000AA
:1042F00040000000020000000100000080000000FB
:10430000020000000001000100010000501B00201D
:10431000581B0020281B0020030000000443000855
:10432000A84100088000400059290008992300088E
:10433000F1200008100000002124000830000000D7
:10434000112A000801000000952900082300000040
:10435000D5240008250000001125000829000000D0
:104360005D250008020000007928000822000000F6
:104370009927000826000000A92500082A0000004F
:10438000FD2500080400000051260008240000005C
:10439000F127000808000000C52600088000000082
:1043A000C73F0008B0000000512A0008A10000002B
:1043B000512A0008A2000000512A0008A4000000B1
:1043C000512A0008A8000000512A000840000000FF
:0C43D000C53F0008210000000C4300085D
:0443DC00650100086F
:0443E000410100088F
:1043E4000100000010000000AAAAAAAA00093D00CA
:1043F400D443000801000000000000000000000099
:104404000A00FF01040000003443000828430008A8
:040000050800407D32
:00000001FF
